{
  "_format": "hh-sol-artifact-1",
  "contractName": "UniswapSwap",
  "sourceName": "contracts/UniswapSwap.sol",
  "abi": [
    {
      "inputs": [
        {
          "internalType": "bytes",
          "name": "path",
          "type": "bytes"
        },
        {
          "internalType": "uint256",
          "name": "amountIn",
          "type": "uint256"
        },
        {
          "internalType": "uint256",
          "name": "amountOutMinimum",
          "type": "uint256"
        },
        {
          "internalType": "address",
          "name": "recipient",
          "type": "address"
        }
      ],
      "name": "swapExactInputMultiHop",
      "outputs": [
        {
          "components": [
            {
              "internalType": "bytes",
              "name": "path",
              "type": "bytes"
            },
            {
              "internalType": "address",
              "name": "recipient",
              "type": "address"
            },
            {
              "internalType": "uint256",
              "name": "deadline",
              "type": "uint256"
            },
            {
              "internalType": "uint256",
              "name": "amountIn",
              "type": "uint256"
            },
            {
              "internalType": "uint256",
              "name": "amountOutMinimum",
              "type": "uint256"
            }
          ],
          "internalType": "struct ISwapRouter.ExactInputParams",
          "name": "params",
          "type": "tuple"
        }
      ],
      "stateMutability": "view",
      "type": "function"
    },
    {
      "inputs": [
        {
          "internalType": "address",
          "name": "tokenIn",
          "type": "address"
        },
        {
          "internalType": "address",
          "name": "tokenOut",
          "type": "address"
        },
        {
          "internalType": "uint24",
          "name": "poolFee",
          "type": "uint24"
        },
        {
          "internalType": "uint256",
          "name": "amountIn",
          "type": "uint256"
        },
        {
          "internalType": "uint256",
          "name": "amountOutMinimum",
          "type": "uint256"
        },
        {
          "internalType": "uint160",
          "name": "sqrtPriceLimitX96",
          "type": "uint160"
        },
        {
          "internalType": "address",
          "name": "recipient",
          "type": "address"
        }
      ],
      "name": "swapExactInputSingleHop",
      "outputs": [
        {
          "components": [
            {
              "internalType": "address",
              "name": "tokenIn",
              "type": "address"
            },
            {
              "internalType": "address",
              "name": "tokenOut",
              "type": "address"
            },
            {
              "internalType": "uint24",
              "name": "fee",
              "type": "uint24"
            },
            {
              "internalType": "address",
              "name": "recipient",
              "type": "address"
            },
            {
              "internalType": "uint256",
              "name": "deadline",
              "type": "uint256"
            },
            {
              "internalType": "uint256",
              "name": "amountIn",
              "type": "uint256"
            },
            {
              "internalType": "uint256",
              "name": "amountOutMinimum",
              "type": "uint256"
            },
            {
              "internalType": "uint160",
              "name": "sqrtPriceLimitX96",
              "type": "uint160"
            }
          ],
          "internalType": "struct ISwapRouter.ExactInputSingleParams",
          "name": "params",
          "type": "tuple"
        }
      ],
      "stateMutability": "view",
      "type": "function"
    }
  ],
  "bytecode": "0x608060405234801561001057600080fd5b50610433806100206000396000f3fe608060405234801561001057600080fd5b50600436106100365760003560e01c8063120928e91461003b578063f26fc29614610064575b600080fd5b61004e6100493660046101d3565b610084565b60405161005b919061037c565b60405180910390f35b61007761007236600461025d565b6100e1565b60405161005b91906102ee565b61008c610157565b5060408051610100810182526001600160a01b039889168152968816602088015262ffffff90951694860194909452928516606085015242608085015260a084019190915260c083015290911660e082015290565b6100e961019b565b6040518060a0016040528087878080601f0160208091040260200160405190810160405280939291908181526020018383808284376000920191909152505050908252506001600160a01b039390931660208401524260408401526060830194909452506080015292915050565b6040805161010081018252600080825260208201819052918101829052606081018290526080810182905260a0810182905260c0810182905260e081019190915290565b6040518060a001604052806060815260200160006001600160a01b031681526020016000815260200160008152602001600081525090565b600080600080600080600060e0888a0312156101ed578283fd5b87356101f8816103e5565b96506020880135610208816103e5565b9550604088013562ffffff8116811461021f578384fd5b9450606088013593506080880135925060a088013561023d816103e5565b915060c088013561024d816103e5565b8091505092959891949750929550565b600080600080600060808688031215610274578081fd5b85356001600160401b038082111561028a578283fd5b818801915088601f83011261029d578283fd5b8135818111156102ab578384fd5b8960208285010111156102bc578384fd5b6020928301975095505086013592506040860135915060608601356102e0816103e5565b809150509295509295909350565b60006020808352835160a08285015280518060c0860152835b818110156103235782810184015186820160e001528301610307565b81811115610334578460e083880101525b5060018060a01b03838701511660408601526040860151606086015260608601516080860152608086015160a086015260e0601f19601f830116860101935050505092915050565b81516001600160a01b03908116825260208084015182169083015260408084015162ffffff16908301526060808401518216908301526080808401519083015260a0838101519083015260c0808401519083015260e09283015116918101919091526101000190565b6001600160a01b03811681146103fa57600080fd5b5056fea2646970667358221220efa0fbba280e477fe721a60e618fdb8f6f18934f30856294894504ff2a57dd6364736f6c634300060c0033",
  "linkReferences": {},
  "deployedLinkReferences": {}
}