{
  "_format": "hh-sol-artifact-1",
  "contractName": "Router",
  "sourceName": "contracts/Router.sol",
  "abi": [
    {
      "inputs": [],
      "stateMutability": "nonpayable",
      "type": "constructor"
    },
    {
      "inputs": [
        {
          "internalType": "address",
          "name": "_plugin",
          "type": "address"
        }
      ],
      "name": "addPlugin",
      "outputs": [],
      "stateMutability": "nonpayable",
      "type": "function"
    },
    {
      "inputs": [
        {
          "internalType": "address",
          "name": "_plugin",
          "type": "address"
        }
      ],
      "name": "approvePlugin",
      "outputs": [],
      "stateMutability": "nonpayable",
      "type": "function"
    },
    {
      "inputs": [
        {
          "internalType": "address",
          "name": "",
          "type": "address"
        },
        {
          "internalType": "address",
          "name": "",
          "type": "address"
        }
      ],
      "name": "approvedPlugins",
      "outputs": [
        {
          "internalType": "bool",
          "name": "",
          "type": "bool"
        }
      ],
      "stateMutability": "view",
      "type": "function"
    },
    {
      "inputs": [
        {
          "internalType": "address",
          "name": "_plugin",
          "type": "address"
        }
      ],
      "name": "denyPlugin",
      "outputs": [],
      "stateMutability": "nonpayable",
      "type": "function"
    },
    {
      "inputs": [],
      "name": "gov",
      "outputs": [
        {
          "internalType": "address",
          "name": "",
          "type": "address"
        }
      ],
      "stateMutability": "view",
      "type": "function"
    },
    {
      "inputs": [
        {
          "internalType": "address",
          "name": "_token",
          "type": "address"
        },
        {
          "internalType": "address",
          "name": "_account",
          "type": "address"
        },
        {
          "internalType": "address",
          "name": "_receiver",
          "type": "address"
        },
        {
          "internalType": "uint256",
          "name": "_amount",
          "type": "uint256"
        }
      ],
      "name": "pluginTransfer",
      "outputs": [],
      "stateMutability": "nonpayable",
      "type": "function"
    },
    {
      "inputs": [
        {
          "internalType": "address",
          "name": "",
          "type": "address"
        }
      ],
      "name": "plugins",
      "outputs": [
        {
          "internalType": "bool",
          "name": "",
          "type": "bool"
        }
      ],
      "stateMutability": "view",
      "type": "function"
    },
    {
      "inputs": [
        {
          "internalType": "address",
          "name": "_plugin",
          "type": "address"
        }
      ],
      "name": "removePlugin",
      "outputs": [],
      "stateMutability": "nonpayable",
      "type": "function"
    },
    {
      "inputs": [
        {
          "internalType": "address",
          "name": "_gov",
          "type": "address"
        }
      ],
      "name": "setGov",
      "outputs": [],
      "stateMutability": "nonpayable",
      "type": "function"
    }
  ],
  "bytecode": "0x608060405234801561001057600080fd5b50600080546001600160a01b031916331790556108c0806100326000396000f3fe608060405234801561001057600080fd5b50600436106100835760003560e01c806312d43a51146100885780631b827878146100ac57806338c74dd9146100ea5780634b12e64314610110578063956f285e1461014a578063a4d95b6414610178578063cedd43751461019e578063cfad57a2146101c4578063d8867fc8146101ea575b600080fd5b610090610210565b604080516001600160a01b039092168252519081900360200190f35b6100e8600480360360808110156100c257600080fd5b506001600160a01b0381358116916020810135821691604082013516906060013561021f565b005b6100e86004803603602081101561010057600080fd5b50356001600160a01b0316610243565b6101366004803603602081101561012657600080fd5b50356001600160a01b0316610274565b604080519115158252519081900360200190f35b6101366004803603604081101561016057600080fd5b506001600160a01b0381358116916020013516610289565b6100e86004803603602081101561018e57600080fd5b50356001600160a01b03166102a9565b6100e8600480360360208110156101b457600080fd5b50356001600160a01b031661031d565b6100e8600480360360208110156101da57600080fd5b50356001600160a01b031661034b565b6100e86004803603602081101561020057600080fd5b50356001600160a01b03166103c0565b6000546001600160a01b031681565b6102288361043a565b61023d6001600160a01b038516848484610510565b50505050565b3360009081526002602090815260408083206001600160a01b0394909416835292905220805460ff19166001179055565b60016020526000908152604090205460ff1681565b600260209081526000928352604080842090915290825290205460ff1681565b6000546001600160a01b031633146102fc576040805162461bcd60e51b81526020600482015260116024820152702937baba32b91d103337b93134b23232b760791b604482015290519081900360640190fd5b6001600160a01b03166000908152600160205260409020805460ff19169055565b3360009081526002602090815260408083206001600160a01b0394909416835292905220805460ff19169055565b6000546001600160a01b0316331461039e576040805162461bcd60e51b81526020600482015260116024820152702937baba32b91d103337b93134b23232b760791b604482015290519081900360640190fd5b600080546001600160a01b0319166001600160a01b0392909216919091179055565b6000546001600160a01b03163314610413576040805162461bcd60e51b81526020600482015260116024820152702937baba32b91d103337b93134b23232b760791b604482015290519081900360640190fd5b6001600160a01b03166000908152600160208190526040909120805460ff19169091179055565b3360009081526001602052604090205460ff16610497576040805162461bcd60e51b81526020600482015260166024820152752937baba32b91d1034b73b30b634b21038363ab3b4b760511b604482015290519081900360640190fd5b6001600160a01b038116600090815260026020908152604080832033845290915290205460ff1661050d576040805162461bcd60e51b815260206004820152601b60248201527a149bdd5d195c8e881c1b1d59da5b881b9bdd08185c1c1c9bdd9959602a1b604482015290519081900360640190fd5b50565b604080516001600160a01b0380861660248301528416604482015260648082018490528251808303909101815260849091019091526020810180516001600160e01b03166323b872dd60e01b17905261023d90859060606105ba826040518060400160405280602081526020017f5361666545524332303a206c6f772d6c6576656c2063616c6c206661696c6564815250856001600160a01b031661061b9092919063ffffffff16565b805190915015610616578080602001905160208110156105d957600080fd5b50516106165760405162461bcd60e51b815260040180806020018281038252602a815260200180610861602a913960400191505060405180910390fd5b505050565b606061062a8484600085610634565b90505b9392505050565b6060824710156106755760405162461bcd60e51b815260040180806020018281038252602681526020018061083b6026913960400191505060405180910390fd5b61067e85610790565b6106cf576040805162461bcd60e51b815260206004820152601d60248201527f416464726573733a2063616c6c20746f206e6f6e2d636f6e7472616374000000604482015290519081900360640190fd5b60006060866001600160a01b031685876040518082805190602001908083835b6020831061070e5780518252601f1990920191602091820191016106ef565b6001836020036101000a03801982511681845116808217855250505050505090500191505060006040518083038185875af1925050503d8060008114610770576040519150601f19603f3d011682016040523d82523d6000602084013e610775565b606091505b5091509150610785828286610796565b979650505050505050565b3b151590565b606083156107a557508161062d565b8251156107b55782518084602001fd5b8160405162461bcd60e51b81526004018080602001828103825283818151815260200191508051906020019080838360005b838110156107ff5781810151838201526020016107e7565b50505050905090810190601f16801561082c5780820380516001836020036101000a031916815260200191505b509250505060405180910390fdfe416464726573733a20696e73756666696369656e742062616c616e636520666f722063616c6c5361666545524332303a204552433230206f7065726174696f6e20646964206e6f742073756363656564a26469706673582212206b71b4d0fe33adb1de85a484c05f5f9875123d3c182e7c0139e30c09ea204be164736f6c634300060c0033",
  "linkReferences": {},
  "deployedLinkReferences": {}
}