{
  "_format": "hh-sol-artifact-1",
  "contractName": "PriceFeed",
  "sourceName": "contracts/PriceFeed.sol",
  "abi": [
    {
      "inputs": [
        {
          "internalType": "address",
          "name": "_priceFactory",
          "type": "address"
        }
      ],
      "stateMutability": "nonpayable",
      "type": "constructor"
    },
    {
      "inputs": [],
      "name": "ONE_USD",
      "outputs": [
        {
          "internalType": "uint256",
          "name": "",
          "type": "uint256"
        }
      ],
      "stateMutability": "view",
      "type": "function"
    },
    {
      "inputs": [],
      "name": "PRICE_PRECISION",
      "outputs": [
        {
          "internalType": "uint256",
          "name": "",
          "type": "uint256"
        }
      ],
      "stateMutability": "view",
      "type": "function"
    },
    {
      "inputs": [
        {
          "internalType": "address",
          "name": "tokenIn",
          "type": "address"
        },
        {
          "internalType": "address",
          "name": "tokenOut",
          "type": "address"
        },
        {
          "internalType": "uint24",
          "name": "fee",
          "type": "uint24"
        },
        {
          "internalType": "uint256[]",
          "name": "tokenDecimals",
          "type": "uint256[]"
        }
      ],
      "name": "getAmmPrice",
      "outputs": [
        {
          "internalType": "uint256",
          "name": "",
          "type": "uint256"
        },
        {
          "internalType": "uint256",
          "name": "",
          "type": "uint256"
        }
      ],
      "stateMutability": "view",
      "type": "function"
    },
    {
      "inputs": [
        {
          "internalType": "address",
          "name": "tokenIn",
          "type": "address"
        },
        {
          "internalType": "address",
          "name": "tokenOut",
          "type": "address"
        },
        {
          "internalType": "address",
          "name": "_token0",
          "type": "address"
        },
        {
          "internalType": "address",
          "name": "_token1",
          "type": "address"
        },
        {
          "internalType": "uint256[]",
          "name": "tokenDecimals",
          "type": "uint256[]"
        },
        {
          "internalType": "uint160",
          "name": "sqrtPriceX96",
          "type": "uint160"
        }
      ],
      "name": "getPairPrice",
      "outputs": [
        {
          "internalType": "uint256",
          "name": "",
          "type": "uint256"
        },
        {
          "internalType": "uint256",
          "name": "",
          "type": "uint256"
        }
      ],
      "stateMutability": "pure",
      "type": "function"
    },
    {
      "inputs": [],
      "name": "gov",
      "outputs": [
        {
          "internalType": "address",
          "name": "",
          "type": "address"
        }
      ],
      "stateMutability": "view",
      "type": "function"
    },
    {
      "inputs": [
        {
          "internalType": "address",
          "name": "_gov",
          "type": "address"
        }
      ],
      "name": "setGov",
      "outputs": [],
      "stateMutability": "nonpayable",
      "type": "function"
    },
    {
      "inputs": [
        {
          "internalType": "address",
          "name": "_priceFactory",
          "type": "address"
        }
      ],
      "name": "setPriceFactory",
      "outputs": [],
      "stateMutability": "nonpayable",
      "type": "function"
    },
    {
      "inputs": [],
      "name": "uniswapFactory",
      "outputs": [
        {
          "internalType": "address",
          "name": "",
          "type": "address"
        }
      ],
      "stateMutability": "view",
      "type": "function"
    }
  ],
  "bytecode": "0x608060405234801561001057600080fd5b50604051610a0e380380610a0e8339818101604052602081101561003357600080fd5b5051600080546001600160a01b03199081163317909155600180546001600160a01b039093169290911691909117905561099c806100726000396000f3fe608060405234801561001057600080fd5b50600436106100785760003560e01c806312d43a511461007d57806367508c26146100a157806367781c0e146100c9578063705c42ba146100e35780638bdb2afa146101d057806395082d25146100c9578063cfad57a2146101d8578063dbbb8527146101fe575b600080fd5b6100856102c4565b604080516001600160a01b039092168252519081900360200190f35b6100c7600480360360208110156100b757600080fd5b50356001600160a01b03166102d3565b005b6100d1610350565b60408051918252519081900360200190f35b6101b7600480360360c08110156100f957600080fd5b6001600160a01b03823581169260208101358216926040820135831692606083013516919081019060a081016080820135600160201b81111561013b57600080fd5b82018360208201111561014d57600080fd5b803590602001918460208302840111600160201b8311171561016e57600080fd5b919080806020026020016040519081016040528093929190818152602001838360200280828437600092019190915250929550505090356001600160a01b031691506103609050565b6040805192835260208301919091528051918290030190f35b61008561046b565b6100c7600480360360208110156101ee57600080fd5b50356001600160a01b031661047a565b6101b76004803603608081101561021457600080fd5b6001600160a01b03823581169260208101359091169162ffffff6040830135169190810190608081016060820135600160201b81111561025357600080fd5b82018360208201111561026557600080fd5b803590602001918460208302840111600160201b8311171561028657600080fd5b9190808060200260200160405190810160405280939291908181526020018383602002808284376000920191909152509295506104f7945050505050565b6000546001600160a01b031681565b6000546001600160a01b0316331461032e576040805162461bcd60e51b81526020600482015260196024820152782b30bab63a283934b1b2a332b2b21d103337b93134b23232b760391b604482015290519081900360640190fd5b600180546001600160a01b0319166001600160a01b0392909216919091179055565b68327cb2734119d3b7a9601e1b81565b60008060008460008151811061037257fe5b6020026020010151905060008560018751038151811061038e57fe5b602002602001015190506000886001600160a01b03168b6001600160a01b0316146103b957816103bb565b825b90506000886001600160a01b03168b6001600160a01b0316146103de57836103e0565b825b905060006103f76001600160a01b03891680610757565b9050600061040d8285600a0a600160c01b6107b9565b90506000610435600a85900a61042f8468327cb2734119d3b7a9601e1b610757565b90610869565b905060006104538261042f68327cb2734119d3b7a9601e1b80610757565b91995090975050505050505050965096945050505050565b6001546001600160a01b031681565b6000546001600160a01b031633146104d5576040805162461bcd60e51b81526020600482015260196024820152782b30bab63a283934b1b2a332b2b21d103337b93134b23232b760391b604482015290519081900360640190fd5b600080546001600160a01b0319166001600160a01b0392909216919091179055565b60015460408051630b4c774160e11b81526001600160a01b038781166004830152868116602483015262ffffff86166044830152915160009384938493911691631698ee8291606480820192602092909190829003018186803b15801561055d57600080fd5b505afa158015610571573d6000803e3d6000fd5b505050506040513d602081101561058757600080fd5b505160408051633850c7bd60e01b8152905191925082916000916001600160a01b03841691633850c7bd9160048082019260e092909190829003018186803b1580156105d257600080fd5b505afa1580156105e6573d6000803e3d6000fd5b505050506040513d60e08110156105fc57600080fd5b505160408051630dfe168160e01b815290519192506000916001600160a01b03851691630dfe1681916004808301926020929190829003018186803b15801561064457600080fd5b505afa158015610658573d6000803e3d6000fd5b505050506040513d602081101561066e57600080fd5b50516040805163d21220a760e01b815290519192506000916001600160a01b0386169163d21220a7916004808301926020929190829003018186803b1580156106b657600080fd5b505afa1580156106ca573d6000803e3d6000fd5b505050506040513d60208110156106e057600080fd5b505190506000806106f58d8d86868e8a610360565b915091506000846001600160a01b03168e6001600160a01b03161461071a578161071c565b825b90506000846001600160a01b03168e6001600160a01b03161461073f5783610741565b825b919f919e50909c50505050505050505050505050565b600082610766575060006107b3565b8282028284828161077357fe5b04146107b05760405162461bcd60e51b81526004018080602001828103825260218152602001806109466021913960400191505060405180910390fd5b90505b92915050565b60008080600019858709868602925082811090839003039050806107ef57600084116107e457600080fd5b508290049050610862565b8084116107fb57600080fd5b6000848688096000868103871696879004966002600389028118808a02820302808a02820302808a02820302808a02820302808a02820302808a02909103029181900381900460010186841190950394909402919094039290920491909117919091029150505b9392505050565b60006107b083836040518060400160405280601a815260200179536166654d6174683a206469766973696f6e206279207a65726f60301b8152506000818361092f5760405162461bcd60e51b81526004018080602001828103825283818151815260200191508051906020019080838360005b838110156108f45781810151838201526020016108dc565b50505050905090810190601f1680156109215780820380516001836020036101000a031916815260200191505b509250505060405180910390fd5b50600083858161093b57fe5b049594505050505056fe536166654d6174683a206d756c7469706c69636174696f6e206f766572666c6f77a2646970667358221220093f72bf1e89ea4dad46b639ef04664baa7f73a5c4a58533fe4afc5d0ab8723664736f6c634300060c0033",
  "linkReferences": {},
  "deployedLinkReferences": {}
}