{
  "_format": "hh-sol-artifact-1",
  "contractName": "OrderBook",
  "sourceName": "contracts/OrderBook.sol",
  "abi": [
    {
      "inputs": [],
      "stateMutability": "nonpayable",
      "type": "constructor"
    },
    {
      "anonymous": false,
      "inputs": [
        {
          "indexed": true,
          "internalType": "address",
          "name": "account",
          "type": "address"
        },
        {
          "indexed": false,
          "internalType": "uint256",
          "name": "orderIndex",
          "type": "uint256"
        },
        {
          "indexed": false,
          "internalType": "address[]",
          "name": "path",
          "type": "address[]"
        },
        {
          "indexed": false,
          "internalType": "uint256[]",
          "name": "tokenDecimals",
          "type": "uint256[]"
        },
        {
          "indexed": false,
          "internalType": "uint256",
          "name": "amountIn",
          "type": "uint256"
        },
        {
          "indexed": false,
          "internalType": "uint256",
          "name": "minOut",
          "type": "uint256"
        },
        {
          "indexed": false,
          "internalType": "uint256",
          "name": "triggerRatio",
          "type": "uint256"
        },
        {
          "indexed": false,
          "internalType": "bool",
          "name": "triggerAboveThreshold",
          "type": "bool"
        },
        {
          "indexed": false,
          "internalType": "bool",
          "name": "shouldUnwrap",
          "type": "bool"
        },
        {
          "indexed": false,
          "internalType": "uint256",
          "name": "executionFee",
          "type": "uint256"
        },
        {
          "indexed": false,
          "internalType": "uint24",
          "name": "fee",
          "type": "uint24"
        }
      ],
      "name": "CancelSwapOrder",
      "type": "event"
    },
    {
      "anonymous": false,
      "inputs": [
        {
          "indexed": true,
          "internalType": "address",
          "name": "account",
          "type": "address"
        },
        {
          "indexed": false,
          "internalType": "uint256",
          "name": "orderIndex",
          "type": "uint256"
        },
        {
          "indexed": false,
          "internalType": "address[]",
          "name": "path",
          "type": "address[]"
        },
        {
          "indexed": false,
          "internalType": "uint256[]",
          "name": "tokenDecimals",
          "type": "uint256[]"
        },
        {
          "indexed": false,
          "internalType": "uint256",
          "name": "amountIn",
          "type": "uint256"
        },
        {
          "indexed": false,
          "internalType": "uint256",
          "name": "minOut",
          "type": "uint256"
        },
        {
          "indexed": false,
          "internalType": "uint256",
          "name": "triggerRatio",
          "type": "uint256"
        },
        {
          "indexed": false,
          "internalType": "bool",
          "name": "triggerAboveThreshold",
          "type": "bool"
        },
        {
          "indexed": false,
          "internalType": "bool",
          "name": "shouldUnwrap",
          "type": "bool"
        },
        {
          "indexed": false,
          "internalType": "uint256",
          "name": "executionFee",
          "type": "uint256"
        },
        {
          "indexed": false,
          "internalType": "uint24",
          "name": "fee",
          "type": "uint24"
        }
      ],
      "name": "CreateSwapOrder",
      "type": "event"
    },
    {
      "anonymous": false,
      "inputs": [
        {
          "indexed": true,
          "internalType": "address",
          "name": "account",
          "type": "address"
        },
        {
          "indexed": false,
          "internalType": "uint256",
          "name": "orderIndex",
          "type": "uint256"
        },
        {
          "indexed": false,
          "internalType": "address[]",
          "name": "path",
          "type": "address[]"
        },
        {
          "indexed": false,
          "internalType": "uint256[]",
          "name": "tokenDecimals",
          "type": "uint256[]"
        },
        {
          "indexed": false,
          "internalType": "uint256",
          "name": "amountIn",
          "type": "uint256"
        },
        {
          "indexed": false,
          "internalType": "uint256",
          "name": "minOut",
          "type": "uint256"
        },
        {
          "indexed": false,
          "internalType": "uint256",
          "name": "amountOut",
          "type": "uint256"
        },
        {
          "indexed": false,
          "internalType": "uint256",
          "name": "triggerRatio",
          "type": "uint256"
        },
        {
          "indexed": false,
          "internalType": "bool",
          "name": "triggerAboveThreshold",
          "type": "bool"
        },
        {
          "indexed": false,
          "internalType": "bool",
          "name": "shouldUnwrap",
          "type": "bool"
        },
        {
          "indexed": false,
          "internalType": "uint256",
          "name": "executionFee",
          "type": "uint256"
        },
        {
          "indexed": false,
          "internalType": "uint24",
          "name": "fee",
          "type": "uint24"
        }
      ],
      "name": "ExecuteSwapOrder",
      "type": "event"
    },
    {
      "anonymous": false,
      "inputs": [
        {
          "indexed": false,
          "internalType": "address",
          "name": "exchangeRouter",
          "type": "address"
        },
        {
          "indexed": false,
          "internalType": "address",
          "name": "customRouter",
          "type": "address"
        },
        {
          "indexed": false,
          "internalType": "address",
          "name": "weth",
          "type": "address"
        },
        {
          "indexed": false,
          "internalType": "uint256",
          "name": "minExecutionFee",
          "type": "uint256"
        },
        {
          "indexed": false,
          "internalType": "uint256",
          "name": "minPurchaseTokenAmountUsd",
          "type": "uint256"
        }
      ],
      "name": "Initialize",
      "type": "event"
    },
    {
      "anonymous": false,
      "inputs": [
        {
          "indexed": true,
          "internalType": "address",
          "name": "account",
          "type": "address"
        },
        {
          "indexed": false,
          "internalType": "bool",
          "name": "isActive",
          "type": "bool"
        }
      ],
      "name": "SetOrderKeeper",
      "type": "event"
    },
    {
      "anonymous": false,
      "inputs": [
        {
          "indexed": false,
          "internalType": "address",
          "name": "exchangeRouter",
          "type": "address"
        },
        {
          "indexed": false,
          "internalType": "address",
          "name": "minExecutionFee",
          "type": "address"
        },
        {
          "indexed": false,
          "internalType": "address",
          "name": "uniSwapParamsGen",
          "type": "address"
        }
      ],
      "name": "UpdateConfig",
      "type": "event"
    },
    {
      "anonymous": false,
      "inputs": [
        {
          "indexed": false,
          "internalType": "address",
          "name": "gov",
          "type": "address"
        }
      ],
      "name": "UpdateGov",
      "type": "event"
    },
    {
      "anonymous": false,
      "inputs": [
        {
          "indexed": false,
          "internalType": "uint256",
          "name": "minExecutionFee",
          "type": "uint256"
        }
      ],
      "name": "UpdateMinExecutionFee",
      "type": "event"
    },
    {
      "anonymous": false,
      "inputs": [
        {
          "indexed": false,
          "internalType": "uint256",
          "name": "minPurchaseTokenAmountUsd",
          "type": "uint256"
        }
      ],
      "name": "UpdateMinPurchaseTokenAmountUsd",
      "type": "event"
    },
    {
      "anonymous": false,
      "inputs": [
        {
          "indexed": true,
          "internalType": "address",
          "name": "account",
          "type": "address"
        },
        {
          "indexed": false,
          "internalType": "uint256",
          "name": "ordexIndex",
          "type": "uint256"
        },
        {
          "indexed": false,
          "internalType": "address[]",
          "name": "path",
          "type": "address[]"
        },
        {
          "indexed": false,
          "internalType": "uint256[]",
          "name": "tokenDecimals",
          "type": "uint256[]"
        },
        {
          "indexed": false,
          "internalType": "uint256",
          "name": "amountIn",
          "type": "uint256"
        },
        {
          "indexed": false,
          "internalType": "uint256",
          "name": "minOut",
          "type": "uint256"
        },
        {
          "indexed": false,
          "internalType": "uint256",
          "name": "triggerRatio",
          "type": "uint256"
        },
        {
          "indexed": false,
          "internalType": "bool",
          "name": "triggerAboveThreshold",
          "type": "bool"
        },
        {
          "indexed": false,
          "internalType": "bool",
          "name": "shouldUnwrap",
          "type": "bool"
        },
        {
          "indexed": false,
          "internalType": "uint256",
          "name": "executionFee",
          "type": "uint256"
        },
        {
          "indexed": false,
          "internalType": "uint24",
          "name": "fee",
          "type": "uint24"
        }
      ],
      "name": "UpdateSwapOrder",
      "type": "event"
    },
    {
      "inputs": [],
      "name": "PRICE_PRECISION",
      "outputs": [
        {
          "internalType": "uint256",
          "name": "",
          "type": "uint256"
        }
      ],
      "stateMutability": "view",
      "type": "function"
    },
    {
      "inputs": [
        {
          "internalType": "address",
          "name": "_token",
          "type": "address"
        },
        {
          "internalType": "address",
          "name": "_spender",
          "type": "address"
        },
        {
          "internalType": "uint256",
          "name": "_amount",
          "type": "uint256"
        }
      ],
      "name": "approve",
      "outputs": [],
      "stateMutability": "nonpayable",
      "type": "function"
    },
    {
      "inputs": [
        {
          "internalType": "uint256",
          "name": "_orderIndex",
          "type": "uint256"
        }
      ],
      "name": "cancelSwapOrder",
      "outputs": [],
      "stateMutability": "nonpayable",
      "type": "function"
    },
    {
      "inputs": [
        {
          "internalType": "address[]",
          "name": "_path",
          "type": "address[]"
        },
        {
          "internalType": "uint256[]",
          "name": "_tokenDecimals",
          "type": "uint256[]"
        },
        {
          "internalType": "uint256",
          "name": "_amountIn",
          "type": "uint256"
        },
        {
          "internalType": "uint256",
          "name": "_minOut",
          "type": "uint256"
        },
        {
          "internalType": "uint256",
          "name": "_triggerRatio",
          "type": "uint256"
        },
        {
          "internalType": "bool",
          "name": "_triggerAboveThreshold",
          "type": "bool"
        },
        {
          "internalType": "uint256",
          "name": "_executionFee",
          "type": "uint256"
        },
        {
          "internalType": "bool",
          "name": "_shouldWrap",
          "type": "bool"
        },
        {
          "internalType": "bool",
          "name": "_shouldUnwrap",
          "type": "bool"
        },
        {
          "internalType": "uint24",
          "name": "_fee",
          "type": "uint24"
        }
      ],
      "name": "createSwapOrder",
      "outputs": [],
      "stateMutability": "payable",
      "type": "function"
    },
    {
      "inputs": [],
      "name": "customRouter",
      "outputs": [
        {
          "internalType": "address",
          "name": "",
          "type": "address"
        }
      ],
      "stateMutability": "view",
      "type": "function"
    },
    {
      "inputs": [],
      "name": "exchangeRouter",
      "outputs": [
        {
          "internalType": "address",
          "name": "",
          "type": "address"
        }
      ],
      "stateMutability": "view",
      "type": "function"
    },
    {
      "inputs": [
        {
          "internalType": "bytes",
          "name": "path",
          "type": "bytes"
        },
        {
          "internalType": "address",
          "name": "_account",
          "type": "address"
        },
        {
          "internalType": "uint256",
          "name": "_orderIndex",
          "type": "uint256"
        },
        {
          "internalType": "address payable",
          "name": "_feeReceiver",
          "type": "address"
        }
      ],
      "name": "executeMultipleSwapOrder",
      "outputs": [],
      "stateMutability": "nonpayable",
      "type": "function"
    },
    {
      "inputs": [
        {
          "internalType": "uint160",
          "name": "_sqrtPriceLimitX96",
          "type": "uint160"
        },
        {
          "internalType": "address",
          "name": "_account",
          "type": "address"
        },
        {
          "internalType": "uint256",
          "name": "_orderIndex",
          "type": "uint256"
        },
        {
          "internalType": "address payable",
          "name": "_feeReceiver",
          "type": "address"
        }
      ],
      "name": "executeSingleSwapOrder",
      "outputs": [],
      "stateMutability": "nonpayable",
      "type": "function"
    },
    {
      "inputs": [
        {
          "internalType": "address",
          "name": "_account",
          "type": "address"
        },
        {
          "internalType": "uint256",
          "name": "_orderIndex",
          "type": "uint256"
        }
      ],
      "name": "getSwapOrder",
      "outputs": [
        {
          "internalType": "address",
          "name": "path0",
          "type": "address"
        },
        {
          "internalType": "address",
          "name": "path1",
          "type": "address"
        },
        {
          "internalType": "address",
          "name": "path2",
          "type": "address"
        },
        {
          "internalType": "uint256",
          "name": "amountIn",
          "type": "uint256"
        },
        {
          "internalType": "uint256",
          "name": "minOut",
          "type": "uint256"
        },
        {
          "internalType": "uint256",
          "name": "triggerRatio",
          "type": "uint256"
        },
        {
          "internalType": "bool",
          "name": "triggerAboveThreshold",
          "type": "bool"
        },
        {
          "internalType": "bool",
          "name": "shouldUnwrap",
          "type": "bool"
        },
        {
          "internalType": "uint256",
          "name": "executionFee",
          "type": "uint256"
        },
        {
          "internalType": "uint24",
          "name": "fee",
          "type": "uint24"
        }
      ],
      "stateMutability": "view",
      "type": "function"
    },
    {
      "inputs": [],
      "name": "gov",
      "outputs": [
        {
          "internalType": "address",
          "name": "",
          "type": "address"
        }
      ],
      "stateMutability": "view",
      "type": "function"
    },
    {
      "inputs": [
        {
          "internalType": "address",
          "name": "_exchangeRouter",
          "type": "address"
        },
        {
          "internalType": "address",
          "name": "_customRouter",
          "type": "address"
        },
        {
          "internalType": "address",
          "name": "_uniSwapParamsGen",
          "type": "address"
        },
        {
          "internalType": "address",
          "name": "_weth",
          "type": "address"
        },
        {
          "internalType": "address",
          "name": "_priceFeed",
          "type": "address"
        },
        {
          "internalType": "uint256",
          "name": "_minExecutionFee",
          "type": "uint256"
        },
        {
          "internalType": "uint256",
          "name": "_minPurchaseTokenAmountUsd",
          "type": "uint256"
        }
      ],
      "name": "initialize",
      "outputs": [],
      "stateMutability": "nonpayable",
      "type": "function"
    },
    {
      "inputs": [],
      "name": "isInitialized",
      "outputs": [
        {
          "internalType": "bool",
          "name": "",
          "type": "bool"
        }
      ],
      "stateMutability": "view",
      "type": "function"
    },
    {
      "inputs": [
        {
          "internalType": "address",
          "name": "",
          "type": "address"
        }
      ],
      "name": "isOrderKeeper",
      "outputs": [
        {
          "internalType": "bool",
          "name": "",
          "type": "bool"
        }
      ],
      "stateMutability": "view",
      "type": "function"
    },
    {
      "inputs": [],
      "name": "minExecutionFee",
      "outputs": [
        {
          "internalType": "uint256",
          "name": "",
          "type": "uint256"
        }
      ],
      "stateMutability": "view",
      "type": "function"
    },
    {
      "inputs": [],
      "name": "minPurchaseTokenAmountUsd",
      "outputs": [
        {
          "internalType": "uint256",
          "name": "",
          "type": "uint256"
        }
      ],
      "stateMutability": "view",
      "type": "function"
    },
    {
      "inputs": [],
      "name": "priceFeed",
      "outputs": [
        {
          "internalType": "address",
          "name": "",
          "type": "address"
        }
      ],
      "stateMutability": "view",
      "type": "function"
    },
    {
      "inputs": [
        {
          "internalType": "address",
          "name": "_gov",
          "type": "address"
        }
      ],
      "name": "setGov",
      "outputs": [],
      "stateMutability": "nonpayable",
      "type": "function"
    },
    {
      "inputs": [
        {
          "internalType": "uint256",
          "name": "_minExecutionFee",
          "type": "uint256"
        }
      ],
      "name": "setMinExecutionFee",
      "outputs": [],
      "stateMutability": "nonpayable",
      "type": "function"
    },
    {
      "inputs": [
        {
          "internalType": "uint256",
          "name": "_minPurchaseTokenAmountUsd",
          "type": "uint256"
        }
      ],
      "name": "setMinPurchaseTokenAmountUsd",
      "outputs": [],
      "stateMutability": "nonpayable",
      "type": "function"
    },
    {
      "inputs": [
        {
          "internalType": "address",
          "name": "_exchangeRouter",
          "type": "address"
        },
        {
          "internalType": "address",
          "name": "_customRouter",
          "type": "address"
        },
        {
          "internalType": "address",
          "name": "_uniSwapParamsGen",
          "type": "address"
        }
      ],
      "name": "setOrderConfig",
      "outputs": [],
      "stateMutability": "nonpayable",
      "type": "function"
    },
    {
      "inputs": [
        {
          "internalType": "address",
          "name": "_account",
          "type": "address"
        },
        {
          "internalType": "bool",
          "name": "_isActive",
          "type": "bool"
        }
      ],
      "name": "setOrderKeeper",
      "outputs": [],
      "stateMutability": "nonpayable",
      "type": "function"
    },
    {
      "inputs": [
        {
          "internalType": "address",
          "name": "",
          "type": "address"
        },
        {
          "internalType": "uint256",
          "name": "",
          "type": "uint256"
        }
      ],
      "name": "swapOrders",
      "outputs": [
        {
          "internalType": "address",
          "name": "account",
          "type": "address"
        },
        {
          "internalType": "uint256",
          "name": "amountIn",
          "type": "uint256"
        },
        {
          "internalType": "uint256",
          "name": "minOut",
          "type": "uint256"
        },
        {
          "internalType": "uint256",
          "name": "triggerRatio",
          "type": "uint256"
        },
        {
          "internalType": "bool",
          "name": "triggerAboveThreshold",
          "type": "bool"
        },
        {
          "internalType": "bool",
          "name": "shouldUnwrap",
          "type": "bool"
        },
        {
          "internalType": "uint256",
          "name": "executionFee",
          "type": "uint256"
        },
        {
          "internalType": "uint24",
          "name": "fee",
          "type": "uint24"
        }
      ],
      "stateMutability": "view",
      "type": "function"
    },
    {
      "inputs": [
        {
          "internalType": "address",
          "name": "",
          "type": "address"
        }
      ],
      "name": "swapOrdersIndex",
      "outputs": [
        {
          "internalType": "uint256",
          "name": "",
          "type": "uint256"
        }
      ],
      "stateMutability": "view",
      "type": "function"
    },
    {
      "inputs": [
        {
          "internalType": "address",
          "name": "_token",
          "type": "address"
        },
        {
          "internalType": "uint256",
          "name": "_amountOutEth",
          "type": "uint256"
        }
      ],
      "name": "transferOut",
      "outputs": [],
      "stateMutability": "nonpayable",
      "type": "function"
    },
    {
      "inputs": [],
      "name": "uniSwapParamsGen",
      "outputs": [
        {
          "internalType": "address",
          "name": "",
          "type": "address"
        }
      ],
      "stateMutability": "view",
      "type": "function"
    },
    {
      "inputs": [
        {
          "internalType": "uint256",
          "name": "_orderIndex",
          "type": "uint256"
        },
        {
          "internalType": "uint256",
          "name": "_minOut",
          "type": "uint256"
        },
        {
          "internalType": "uint256",
          "name": "_triggerRatio",
          "type": "uint256"
        },
        {
          "internalType": "bool",
          "name": "_triggerAboveThreshold",
          "type": "bool"
        }
      ],
      "name": "updateSwapOrder",
      "outputs": [],
      "stateMutability": "nonpayable",
      "type": "function"
    },
    {
      "inputs": [
        {
          "internalType": "address[]",
          "name": "_path",
          "type": "address[]"
        },
        {
          "internalType": "uint256[]",
          "name": "_tokenDecimals",
          "type": "uint256[]"
        },
        {
          "internalType": "bool",
          "name": "_triggerAboveThreshold",
          "type": "bool"
        },
        {
          "internalType": "uint256",
          "name": "_triggerRatio",
          "type": "uint256"
        },
        {
          "internalType": "uint24",
          "name": "_fee",
          "type": "uint24"
        }
      ],
      "name": "validateSwapOrderPriceWithTriggerAboveThreshold",
      "outputs": [
        {
          "internalType": "bool",
          "name": "",
          "type": "bool"
        }
      ],
      "stateMutability": "view",
      "type": "function"
    },
    {
      "inputs": [],
      "name": "weth",
      "outputs": [
        {
          "internalType": "address",
          "name": "",
          "type": "address"
        }
      ],
      "stateMutability": "view",
      "type": "function"
    },
    {
      "stateMutability": "payable",
      "type": "receive"
    }
  ],
  "bytecode": "0x6080604052600c805460ff1916905534801561001a57600080fd5b506001600055600480546001600160a01b03191633179055613b2c806100416000396000f3fe60806040526004361061014a5760003560e01c8062cf066b146101895780630d5cc938146101bf57806312d43a51146101df5780631cb85818146102015780631e261538146102165780632472cf7a146102365780633833f5f514610256578063392e53cd146102835780633fc8cef31461029857806363ae2103146102ad578063741bef1a146102c257806376890c58146102d757806379221fa2146102f757806383fe01341461032b5780638de10c2e1461034b57806395082d251461036057806399e895dd146103755780639c8595061461038a578063b33f95271461039f578063c4e86f8d146103bf578063c86b0f7d146103df578063cfad57a2146103ff578063d0d40cd61461041f578063e1f21c6714610455578063eb1631a314610475578063f882ac0714610495578063f918c9c7146104b5578063fc2cee62146104c857610184565b36610184576005546001600160a01b031633146101825760405162461bcd60e51b815260040161017990613666565b60405180910390fd5b005b600080fd5b34801561019557600080fd5b506101a96101a4366004612963565b6104e8565b6040516101b6919061387f565b60405180910390f35b3480156101cb57600080fd5b506101826101da366004612ec8565b6104fa565b3480156101eb57600080fd5b506101f4610564565b6040516101b69190613085565b34801561020d57600080fd5b506101f4610573565b34801561022257600080fd5b50610182610231366004612a8b565b610582565b34801561024257600080fd5b50610182610251366004612c6a565b61060c565b34801561026257600080fd5b50610276610271366004612963565b610bc2565b6040516101b6919061327a565b34801561028f57600080fd5b50610276610bd7565b3480156102a457600080fd5b506101f4610be0565b3480156102b957600080fd5b506101a9610bef565b3480156102ce57600080fd5b506101f4610bf5565b3480156102e357600080fd5b506101826102f2366004612ac3565b610c04565b34801561030357600080fd5b50610317610312366004612ac3565b610cde565b6040516101b6989796959493929190613230565b34801561033757600080fd5b50610276610346366004612aee565b610d41565b34801561035757600080fd5b506101a9610e5a565b34801561036c57600080fd5b506101a9610e60565b34801561038157600080fd5b506101f4610e70565b34801561039657600080fd5b506101f4610e7f565b3480156103ab57600080fd5b506101826103ba3660046129c9565b610e8e565b3480156103cb57600080fd5b506101826103da36600461297f565b610f92565b3480156103eb57600080fd5b506101826103fa366004612f1b565b61103a565b34801561040b57600080fd5b5061018261041a366004612963565b61113b565b34801561042b57600080fd5b5061043f61043a366004612ac3565b6111b0565b6040516101b69a99989796959493929190613134565b34801561046157600080fd5b50610182610470366004612a4b565b61141e565b34801561048157600080fd5b50610182610490366004612e76565b611461565b3480156104a157600080fd5b506101826104b0366004612ec8565b611a52565b6101826104c3366004612b7f565b611d93565b3480156104d457600080fd5b506101826104e3366004612ec8565b611fcd565b60026020526000908152604090205481565b6004546001600160a01b031633146105245760405162461bcd60e51b8152600401610179906132d2565b600b8190556040517fe46d9daf6d25f7615efa1d0183b90ac6759d85014b598e409aadf0fd918d59a69061055990839061387f565b60405180910390a150565b6004546001600160a01b031681565b6007546001600160a01b031681565b6004546001600160a01b031633146105ac5760405162461bcd60e51b8152600401610179906132d2565b6001600160a01b03821660008181526003602052604090819020805460ff1916841515179055517f1d5bc0255b943d6a5b5279e8a55d74d620baccbceecb25e87a3558f14c4c118e9061060090849061327a565b60405180910390a25050565b6002600054141561062f5760405162461bcd60e51b815260040161017990613731565b600260009081553381526003602052604090205460ff166106625760405162461bcd60e51b8152600401610179906132d2565b61066a612684565b6001600160a01b03808516600090815260016020818152604080842088855282529283902083516101408101855281549095168552918201805484518184028101840190955280855292938583019390928301828280156106f457602002820191906000526020600020905b81546001600160a01b031681526001909101906020018083116106d6575b505050505081526020016002820180548060200260200160405190810160405280929190818152602001828054801561074c57602002820191906000526020600020905b815481526020019060010190808311610738575b5050509183525050600382015460208201526004820154604082015260058201546060820152600682015460ff8082161515608084015261010090910416151560a0820152600782015460c082015260089091015462ffffff1660e09091015280519091506001600160a01b03166107d65760405162461bcd60e51b8152600401610179906135f9565b6107f8816020015182604001518360c001518460a00151856101200151610d41565b6108145760405162461bcd60e51b81526004016101799061357c565b6001600160a01b0384166000908152600160208181526040808420878552909152822080546001600160a01b03191681559190610853908301826126e9565b6108616002830160006126e9565b50600060038201819055600482018190556005820181905560068201805461ffff19169055600782018190556008909101805462ffffff191690556020820151805182919060001981019081106108b457fe5b60209081029190910101516005549091506001600160a01b0380831691161480156108e057508260e001515b15610a1a576108ed61270a565b60095460608501516080860151604051637937e14b60e11b81526001600160a01b039093169263f26fc2969261092d928e928e9291903090600401613285565b60006040518083038186803b15801561094557600080fd5b505afa158015610959573d6000803e3d6000fd5b505050506040513d6000823e601f3d908101601f191682016040526109819190810190612cf6565b60075460405163c04b8d5960e01b81529192506001600160a01b03169063c04b8d59906109b29084906004016137be565b602060405180830381600087803b1580156109cc57600080fd5b505af11580156109e0573d6000803e3d6000fd5b505050506040513d601f19601f82011682018060405250810190610a049190612ee0565b9250610a1483856000015161202c565b50610b3b565b610a2261270a565b600954606085015160808601518651604051637937e14b60e11b81526001600160a01b039094169363f26fc29693610a60938f938f93600401613285565b60006040518083038186803b158015610a7857600080fd5b505afa158015610a8c573d6000803e3d6000fd5b505050506040513d6000823e601f3d908101601f19168201604052610ab49190810190612cf6565b60075460405163c04b8d5960e01b81529192506001600160a01b03169063c04b8d5990610ae59084906004016137be565b602060405180830381600087803b158015610aff57600080fd5b505af1158015610b13573d6000803e3d6000fd5b505050506040513d601f19601f82011682018060405250810190610b379190612ee0565b9250505b610b4a8361010001518561202c565b856001600160a01b0316600080516020613ad7833981519152868560200151866040015187606001518860800151888a60a001518b60c001518c60e001518d61010001518e6101200151604051610bab9b9a999897969594939291906138f8565b60405180910390a250506001600055505050505050565b60036020526000908152604090205460ff1681565b600c5460ff1681565b6005546001600160a01b031681565b600a5481565b6006546001600160a01b031681565b6004546001600160a01b03163314610c2e5760405162461bcd60e51b8152600401610179906132d2565b6040516370a0823160e01b815233906000906001600160a01b038516906370a0823190610c5f903090600401613085565b60206040518083038186803b158015610c7757600080fd5b505afa158015610c8b573d6000803e3d6000fd5b505050506040513d601f19601f82011682018060405250810190610caf9190612ee0565b9050610cc56001600160a01b03851633836120a6565b610cd86001600160a01b038316846120fc565b50505050565b600160209081526000928352604080842090915290825290208054600382015460048301546005840154600685015460078601546008909601546001600160a01b039095169593949293919260ff8083169361010090930416919062ffffff1688565b6000855160021480610d54575085516003145b610d705760405162461bcd60e51b815260040161017990613545565b600086600081518110610d7f57fe5b60200260200101519050600087600189510381518110610d9b57fe5b602090810291909101015160065460405163dbbb852760e01b815291925060009182916001600160a01b03169063dbbb852790610de290879087908b908f90600401613192565b604080518083038186803b158015610df957600080fd5b505afa158015610e0d573d6000803e3d6000fd5b505050506040513d601f19601f82011682018060405250810190610e319190612ef8565b909250905081600089610e4657888210610e4a565b8882115b9c9b505050505050505050505050565b600b5481565b68327cb2734119d3b7a9601e1b81565b6008546001600160a01b031681565b6009546001600160a01b031681565b6004546001600160a01b03163314610eb85760405162461bcd60e51b8152600401610179906132d2565b600c5460ff1615610edb5760405162461bcd60e51b815260040161017990613335565b600c805460ff19166001179055600780546001600160a01b03808a166001600160a01b0319928316179092556008805489841690831617905560098054888416908316179055600580548784169083161790556006805492861692909116919091179055600a829055600b8190556040517f0f4e49fafe73f5d41dd869ea8947aca5854012f53890a27f7379ad92a02edb6d90610f819089908990889087908790613100565b60405180910390a150505050505050565b6004546001600160a01b03163314610fbc5760405162461bcd60e51b8152600401610179906132d2565b600780546001600160a01b038086166001600160a01b0319928316179092556008805485841690831617905560098054928416929091169190911790556040517f35f180c3b8e1453b18b442cd6962e98c45d53fe080b4e2fa37065c95d5ae9b1d9061102d908590859085906130dd565b60405180910390a1505050565b6002600054141561105d5760405162461bcd60e51b815260040161017990613731565b60026000908155338152600160209081526040808320878452909152902080546001600160a01b03166110a25760405162461bcd60e51b8152600401610179906135f9565b600481018490556005810183905560068101805483151560ff19909116179081905560038201546007830154600884015460405133947f868ca3017d54049ba526a1d1802622de7d47bc60c03dd1af3991b1464349be7494611127948c9460018a019460028b01948e938e938e9361010090930460ff169262ffffff90911690613971565b60405180910390a250506001600055505050565b6004546001600160a01b031633146111655760405162461bcd60e51b8152600401610179906132d2565b600480546001600160a01b0319166001600160a01b0383161790556040517fe24c39186e9137521953beaa8446e71f55b8f12296984f9d4273ceb1af728d9090610559908390613085565b6000806000806000806000806000806111c7612684565b600160008e6001600160a01b03166001600160a01b0316815260200190815260200160002060008d8152602001908152602001600020604051806101400160405290816000820160009054906101000a90046001600160a01b03166001600160a01b03166001600160a01b031681526020016001820180548060200260200160405190810160405280929190818152602001828054801561129157602002820191906000526020600020905b81546001600160a01b03168152600190910190602001808311611273575b50505050508152602001600282018054806020026020016040519081016040528092919081815260200182805480156112e957602002820191906000526020600020905b8154815260200190600101908083116112d5575b505050918352505060038201546020808301919091526004830154604083015260058301546060830152600683015460ff8082161515608085015261010090910416151560a0830152600783015460c083015260089092015462ffffff1660e0909101528101515190915061135f576000611379565b806020015160008151811061137057fe5b60200260200101515b60018260200151511161138d5760006113a7565b816020015160018151811061139e57fe5b60200260200101515b6002836020015151116113bb5760006113d5565b82602001516002815181106113cc57fe5b60200260200101515b836060015184608001518560a001518660c001518760e001518861010001518961012001519a509a509a509a509a509a509a509a509a509a50509295989b9194979a5092959850565b6004546001600160a01b031633146114485760405162461bcd60e51b8152600401610179906132d2565b61145c6001600160a01b0384168383612198565b505050565b600260005414156114845760405162461bcd60e51b815260040161017990613731565b600260009081553381526003602052604090205460ff166114b75760405162461bcd60e51b8152600401610179906132d2565b6114bf612684565b6001600160a01b038085166000908152600160208181526040808420888552825292839020835161014081018552815490951685529182018054845181840281018401909552808552929385830193909283018282801561154957602002820191906000526020600020905b81546001600160a01b0316815260019091019060200180831161152b575b50505050508152602001600282018054806020026020016040519081016040528092919081815260200182805480156115a157602002820191906000526020600020905b81548152602001906001019080831161158d575b5050509183525050600382015460208201526004820154604082015260058201546060820152600682015460ff8082161515608084015261010090910416151560a0820152600782015460c082015260089091015462ffffff1660e09091015280519091506001600160a01b031661162b5760405162461bcd60e51b8152600401610179906135f9565b61164d816020015182604001518360c001518460a00151856101200151610d41565b6116695760405162461bcd60e51b81526004016101799061357c565b6001600160a01b0384166000908152600160208181526040808420878552909152822080546001600160a01b031916815591906116a8908301826126e9565b6116b66002830160006126e9565b50600060038201819055600482018190556005820181905560068201805461ffff19169055600782018190556008909101805462ffffff1916905560208201518051829190829061170357fe5b60200260200101519050600083602001516001856020015151038151811061172757fe5b60209081029190910101516005549091506001600160a01b03808316911614801561175357508360e001515b156118a457611760612742565b600960009054906101000a90046001600160a01b03166001600160a01b031663120928e9848488610120015189606001518a608001518f306040518863ffffffff1660e01b81526004016117ba97969594939291906131d3565b6101006040518083038186803b1580156117d357600080fd5b505afa1580156117e7573d6000803e3d6000fd5b505050506040513d601f19601f8201168201806040525081019061180b9190612ddd565b60075460405163414bf38960e01b81529192506001600160a01b03169063414bf3899061183c908490600401613816565b602060405180830381600087803b15801561185657600080fd5b505af115801561186a573d6000803e3d6000fd5b505050506040513d601f19601f8201168201806040525081019061188e9190612ee0565b935061189e84866000015161202c565b506119e2565b6118ac612742565b600960009054906101000a90046001600160a01b03166001600160a01b031663120928e9848488610120015189606001518a608001518f8c600001516040518863ffffffff1660e01b815260040161190a97969594939291906131d3565b6101006040518083038186803b15801561192357600080fd5b505afa158015611937573d6000803e3d6000fd5b505050506040513d601f19601f8201168201806040525081019061195b9190612ddd565b60075460405163414bf38960e01b81529192506001600160a01b03169063414bf3899061198c908490600401613816565b602060405180830381600087803b1580156119a657600080fd5b505af11580156119ba573d6000803e3d6000fd5b505050506040513d601f19601f820116820180604052508101906119de9190612ee0565b9350505b6119f18461010001518661202c565b866001600160a01b0316600080516020613ad7833981519152878660200151876040015188606001518960800151898b60a001518c60c001518d60e001518e61010001518f6101200151604051610bab9b9a999897969594939291906138f8565b60026000541415611a755760405162461bcd60e51b815260040161017990613731565b6002600055611a82612684565b33600090815260016020818152604080842086855282529283902083516101408101855281546001600160a01b0316815292810180548551818502810185019096528086529394919385840193830182828015611b0857602002820191906000526020600020905b81546001600160a01b03168152600190910190602001808311611aea575b5050505050815260200160028201805480602002602001604051908101604052809291908181526020018280548015611b6057602002820191906000526020600020905b815481526020019060010190808311611b4c575b5050509183525050600382015460208201526004820154604082015260058201546060820152600682015460ff8082161515608084015261010090910416151560a0820152600782015460c082015260089091015462ffffff1660e09091015280519091506001600160a01b0316611bea5760405162461bcd60e51b8152600401610179906135f9565b336000908152600160208181526040808420868552909152822080546001600160a01b03191681559190611c20908301826126e9565b611c2e6002830160006126e9565b5060006003820181905560048201819055600580830182905560068301805461ffff19169055600783018290556008909201805462ffffff191690559054602083015180516001600160a01b03909216929091611c8757fe5b60200260200101516001600160a01b03161415611cc857611cc3611cbd826060015183610100015161225b90919063ffffffff16565b3361202c565b611d11565b611d023382606001518360200151600081518110611ce257fe5b60200260200101516001600160a01b03166120a69092919063ffffffff16565b611d118161010001513361202c565b336001600160a01b03167f12a45dbc05635c37c1a555a188c8fadc33058c3f042ce3ef998d35a58e78be9f8383602001518460400151856060015186608001518760a001518860c001518960e001518a61010001518b6101200151604051611d829a99989796959493929190613888565b60405180910390a250506001600055565b60026000541415611db65760405162461bcd60e51b815260040161017990613731565b600260008190558a511480611dcc575089516003145b611de85760405162461bcd60e51b815260040161017990613545565b8960018b510381518110611df857fe5b60200260200101516001600160a01b03168a600081518110611e1657fe5b60200260200101516001600160a01b03161415611e455760405162461bcd60e51b8152600401610179906134cd565b60008811611e655760405162461bcd60e51b815260040161017990613630565b600a54841015611e875760405162461bcd60e51b815260040161017990613488565b611e8f612289565b8215611f0c576005548a516001600160a01b03909116908b90600090611eb157fe5b60200260200101516001600160a01b031614611edf5760405162461bcd60e51b815260040161017990613443565b611ee9848961225b565b3414611f075760405162461bcd60e51b8152600401610179906134ff565b611faa565b833414611f2b5760405162461bcd60e51b8152600401610179906136e3565b6008548a516001600160a01b0390911690631b827878908c90600090611f4d57fe5b602002602001015133308c6040518563ffffffff1660e01b8152600401611f7794939291906130b3565b600060405180830381600087803b158015611f9157600080fd5b505af1158015611fa5573d6000803e3d6000fd5b505050505b611fbc338b8b8b8b8b8b898c8a6122fb565b505060016000555050505050505050565b6004546001600160a01b03163314611ff75760405162461bcd60e51b8152600401610179906132d2565b600a8190556040517fbde5eafdc37b81830d70124cddccaaa6d034e71dda3c8fc18a959ca76a7cbcfc9061055990839061387f565b600554604051632e1a7d4d60e01b81526001600160a01b0390911690632e1a7d4d9061205c90859060040161387f565b600060405180830381600087803b15801561207657600080fd5b505af115801561208a573d6000803e3d6000fd5b506120a2925050506001600160a01b038216836120fc565b5050565b61145c8363a9059cbb60e01b84846040516024016120c5929190613217565b60408051601f198184030181529190526020810180516001600160e01b03166001600160e01b0319909316929092179091526124dc565b8047101561211c5760405162461bcd60e51b8152600401610179906133c6565b6000826001600160a01b03168260405161213590613082565b60006040518083038185875af1925050503d8060008114612172576040519150601f19603f3d011682016040523d82523d6000602084013e612177565b606091505b505090508061145c5760405162461bcd60e51b81526004016101799061336c565b8015806122205750604051636eb1769f60e11b81526001600160a01b0384169063dd62ed3e906121ce9030908690600401613099565b60206040518083038186803b1580156121e657600080fd5b505afa1580156121fa573d6000803e3d6000fd5b505050506040513d601f19601f8201168201806040525081019061221e9190612ee0565b155b61223c5760405162461bcd60e51b815260040161017990613768565b61145c8363095ea7b360e01b84846040516024016120c5929190613217565b6000828201838110156122805760405162461bcd60e51b815260040161017990613300565b90505b92915050565b34156122f957600560009054906101000a90046001600160a01b03166001600160a01b031663d0e30db0346040518263ffffffff1660e01b81526004016000604051808303818588803b1580156122df57600080fd5b505af11580156122f3573d6000803e3d6000fd5b50505050505b565b6001600160a01b038a1660009081526002602052604090205461231c612684565b6040518061014001604052808d6001600160a01b031681526020018c81526020018b81526020018a8152602001898152602001888152602001871515815260200186151581526020018581526020018462ffffff16815250905061238a60018361225b90919063ffffffff16565b6001600160a01b038d81166000908152600260209081526040808320949094556001808252848320878452825293909120845181546001600160a01b031916931692909217825583810151805185946123e893908501920190612786565b50604082015180516124049160028401916020909101906127eb565b50606082015160038201556080820151600482015560a0820151600582015560c082015160068201805460e085015160ff199091169215159290921761ff00191661010092151583021790558201516007820155610120909101516008909101805462ffffff191662ffffff9092169190911790556040516001600160a01b038d16907f6a79c287440d43ca86db5fa7118249871fe10480590759b51cadf5b2d6aa126e906124c69085908f908f908f908f908f908f908f908f908f90613888565b60405180910390a2505050505050505050505050565b6060612531826040518060400160405280602081526020017f5361666545524332303a206c6f772d6c6576656c2063616c6c206661696c6564815250856001600160a01b031661256b9092919063ffffffff16565b80519091501561145c578080602001905181019061254f9190612c4e565b61145c5760405162461bcd60e51b815260040161017990613699565b606061257a8484600085612584565b90505b9392505050565b6060824710156125a65760405162461bcd60e51b8152600401610179906133fd565b6125af85612645565b6125cb5760405162461bcd60e51b8152600401610179906135c2565b60006060866001600160a01b031685876040516125e89190613066565b60006040518083038185875af1925050503d8060008114612625576040519150601f19603f3d011682016040523d82523d6000602084013e61262a565b606091505b509150915061263a82828661264b565b979650505050505050565b3b151590565b6060831561265a57508161257d565b82511561266a5782518084602001fd5b8160405162461bcd60e51b815260040161017991906132bf565b60405180610140016040528060006001600160a01b03168152602001606081526020016060815260200160008152602001600081526020016000815260200160001515815260200160001515815260200160008152602001600062ffffff1681525090565b5080546000825590600052602060002090810190612707919061282e565b50565b6040518060a001604052806060815260200160006001600160a01b031681526020016000815260200160008152602001600081525090565b6040805161010081018252600080825260208201819052918101829052606081018290526080810182905260a0810182905260c0810182905260e081019190915290565b8280548282559060005260206000209081019282156127db579160200282015b828111156127db57825182546001600160a01b0319166001600160a01b039091161782556020909201916001909101906127a6565b506127e7929150612843565b5090565b828054828255906000526020600020908101928215612826579160200282015b8281111561282657825182559160200191906001019061280b565b506127e79291505b5b808211156127e7576000815560010161282f565b5b808211156127e75780546001600160a01b0319168155600101612844565b805161228381613aa2565b600082601f83011261287d578081fd5b813561289061288b82613a57565b613a31565b8181529150602080830190848101818402860182018710156128b157600080fd5b60005b848110156128d95781356128c781613aa2565b845292820192908201906001016128b4565b505050505092915050565b600082601f8301126128f4578081fd5b813561290261288b82613a57565b81815291506020808301908481018184028601820187101561292357600080fd5b60005b848110156128d957813584529282019290820190600101612926565b803561228381613ab7565b803561228381613ac5565b805161228381613ac5565b600060208284031215612974578081fd5b813561228081613aa2565b600080600060608486031215612993578182fd5b833561299e81613aa2565b925060208401356129ae81613aa2565b915060408401356129be81613aa2565b809150509250925092565b600080600080600080600060e0888a0312156129e3578283fd5b87356129ee81613aa2565b965060208801356129fe81613aa2565b95506040880135612a0e81613aa2565b94506060880135612a1e81613aa2565b93506080880135612a2e81613aa2565b9699959850939692959460a0840135945060c09093013592915050565b600080600060608486031215612a5f578283fd5b8335612a6a81613aa2565b92506020840135612a7a81613aa2565b929592945050506040919091013590565b60008060408385031215612a9d578182fd5b8235612aa881613aa2565b91506020830135612ab881613ab7565b809150509250929050565b60008060408385031215612ad5578182fd5b8235612ae081613aa2565b946020939093013593505050565b600080600080600060a08688031215612b05578283fd5b85356001600160401b0380821115612b1b578485fd5b612b2789838a0161286d565b96506020880135915080821115612b3c578485fd5b50612b49888289016128e4565b9450506040860135612b5a81613ab7565b9250606086013591506080860135612b7181613ac5565b809150509295509295909350565b6000806000806000806000806000806101408b8d031215612b9e578384fd5b8a356001600160401b0380821115612bb4578586fd5b612bc08e838f0161286d565b9b5060208d0135915080821115612bd5578586fd5b50612be28d828e016128e4565b99505060408b0135975060608b0135965060808b01359550612c078c60a08d01612942565b945060c08b01359350612c1d8c60e08d01612942565b9250612c2d8c6101008d01612942565b9150612c3d8c6101208d0161294d565b90509295989b9194979a5092959850565b600060208284031215612c5f578081fd5b815161228081613ab7565b600080600080600060808688031215612c81578283fd5b85356001600160401b0380821115612c97578485fd5b818801915088601f830112612caa578485fd5b813581811115612cb8578586fd5b896020828501011115612cc9578586fd5b60209283019750955050860135612cdf81613aa2565b9250604086013591506060860135612b7181613aa2565b60006020808385031215612d08578182fd5b82516001600160401b0380821115612d1e578384fd5b9084019060a08287031215612d31578384fd5b612d3b60a0613a31565b825182811115612d49578586fd5b8301601f81018813612d59578586fd5b805183811115612d67578687fd5b612d79601f8201601f19168701613a31565b93508084528886828401011115612d8e578687fd5b612d9d81878601888501613a76565b5050818152612dae87858501612862565b848201526040830151604082015260608301516060820152608083015160808201528094505050505092915050565b6000610100808385031215612df0578182fd5b612df981613a31565b90508251612e0681613aa2565b81526020830151612e1681613aa2565b6020820152612e288460408501612958565b6040820152612e3a8460608501612862565b60608201526080830151608082015260a083015160a082015260c083015160c0820152612e6a8460e08501612862565b60e08201529392505050565b60008060008060808587031215612e8b578182fd5b8435612e9681613aa2565b93506020850135612ea681613aa2565b9250604085013591506060850135612ebd81613aa2565b939692955090935050565b600060208284031215612ed9578081fd5b5035919050565b600060208284031215612ef1578081fd5b5051919050565b60008060408385031215612f0a578182fd5b505080516020909101519092909150565b60008060008060808587031215612f30578182fd5b8435935060208501359250604085013591506060850135612ebd81613ab7565b6001600160a01b03169052565b6000815180845260208085019450808401835b83811015612f955781516001600160a01b031687529582019590820190600101612f70565b509495945050505050565b6000815180845260208085019450808401835b83811015612f9557815187529582019590820190600101612fb3565b6000815480845260208085019450838352808320835b83811015612f9557815487529582019560019182019101612fe5565b15159052565b60008284528282602086013780602084860101526020601f19601f85011685010190509392505050565b60008151808452613049816020860160208601613a76565b601f01601f19169290920160200192915050565b62ffffff169052565b60008251613078818460208701613a76565b9190910192915050565b90565b6001600160a01b0391909116815260200190565b6001600160a01b0392831681529116602082015260400190565b6001600160a01b039485168152928416602084015292166040820152606081019190915260800190565b6001600160a01b0393841681529183166020830152909116604082015260600190565b6001600160a01b03958616815293851660208501529190931660408301526060820192909252608081019190915260a00190565b6001600160a01b039a8b168152988a1660208a01529690981660408801526060870194909452608086019290925260a0850152151560c0840152151560e083015261010082019290925262ffffff9091166101208201526101400190565b6001600160a01b0385811682528416602082015262ffffff831660408201526080606082018190526000906131c990830184612fa0565b9695505050505050565b6001600160a01b039788168152958716602087015262ffffff94909416604086015260608501929092526080840152831660a083015290911660c082015260e00190565b6001600160a01b03929092168252602082015260400190565b6001600160a01b0398909816885260208801969096526040870194909452606086019290925215156080850152151560a084015260c083015262ffffff1660e08201526101000190565b901515815260200190565b600060808252613299608083018789613007565b60208301959095525060408101929092526001600160a01b031660609091015292915050565b60006020825261257d6020830184613031565b60208082526014908201527327b93232b92137b7b59d103337b93134b23232b760611b604082015260600190565b6020808252601b908201527a536166654d6174683a206164646974696f6e206f766572666c6f7760281b604082015260600190565b6020808252601e908201527f4f72646572426f6f6b3a20616c726561647920696e697469616c697a65640000604082015260600190565b6020808252603a908201527f416464726573733a20756e61626c6520746f2073656e642076616c75652c20726040820152791958da5c1a595b9d081b585e481a185d99481c995d995c9d195960321b606082015260800190565b6020808252601d908201527f416464726573733a20696e73756666696369656e742062616c616e6365000000604082015260600190565b60208082526026908201527f416464726573733a20696e73756666696369656e742062616c616e636520666f6040820152651c8818d85b1b60d21b606082015260800190565b60208082526025908201527f4f72646572426f6f6b3a206f6e6c79207765746820636f756c64206265207772604082015264185c1c195960da1b606082015260800190565b60208082526025908201527f4f72646572426f6f6b3a20696e73756666696369656e7420657865637574696f6040820152646e2066656560d81b606082015260800190565b60208082526018908201527709ee4c8cae484deded67440d2dcecc2d8d2c840bee0c2e8d60431b604082015260600190565b60208082526026908201527f4f72646572426f6f6b3a20696e636f72726563742076616c7565207472616e7360408201526519995c9c995960d21b606082015260800190565b6020808252601f908201527f4f72646572426f6f6b3a20696e76616c6964205f706174682e6c656e67746800604082015260600190565b60208082526026908201527f4f72646572426f6f6b3a20696e76616c696420707269636520666f722065786560408201526531baba34b7b760d11b606082015260800190565b6020808252601d908201527f416464726573733a2063616c6c20746f206e6f6e2d636f6e7472616374000000604082015260600190565b6020808252601d908201527f4f72646572426f6f6b3a206e6f6e2d6578697374656e74206f72646572000000604082015260600190565b6020808252601c908201527b27b93232b92137b7b59d1034b73b30b634b2102fb0b6b7bab73a24b760211b604082015260600190565b60208082526019908201527827b93232b92137b7b59d1034b73b30b634b21039b2b73232b960391b604082015260600190565b6020808252602a908201527f5361666545524332303a204552433230206f7065726174696f6e20646964206e6040820152691bdd081cdd58d8d9595960b21b606082015260800190565b6020808252602e908201527f4f72646572426f6f6b3a20696e636f727265637420657865637574696f6e206660408201526d1959481d1c985b9cd9995c9c995960921b606082015260800190565b6020808252601f908201527f5265656e7472616e637947756172643a207265656e7472616e742063616c6c00604082015260600190565b60208082526036908201527f5361666545524332303a20617070726f76652066726f6d206e6f6e2d7a65726f60408201527520746f206e6f6e2d7a65726f20616c6c6f77616e636560501b606082015260800190565b600060208252825160a060208401526137da60c0840182613031565b905060018060a01b0360208501511660408401526040840151606084015260608401516080840152608084015160a08401528091505092915050565b81516001600160a01b03908116825260208084015182169083015260408084015162ffffff16908301526060808401518216908301526080808401519083015260a0838101519083015260c0808401519083015260e09283015116918101919091526101000190565b90815260200190565b60006101408c83528060208401526138a28184018d612f5d565b905082810360408401526138b6818c612fa0565b606084019a909a525050608081019690965260a086019490945291151560c0850152151560e084015261010083015262ffffff16610120909101529392505050565b60006101608d83528060208401526139128184018e612f5d565b90508281036040840152613926818d612fa0565b606084019b909b525050608081019790975260a087019590955260c086019390935290151560e0850152151561010084015261012083015262ffffff16610140909101529392505050565b8a815261014060208083018290528b5491830182905260008c8152818120909261016085019290845b818110156139c85783546139b89086906001600160a01b0316612f50565b938201936001938401930161399a565b5050505082810360408401526139de818c612fcf565b9150508860608301528760808301528660a0830152613a0060c0830187613001565b613a0d60e0830186613001565b83610100830152613a2261012083018461305d565b9b9a5050505050505050505050565b6040518181016001600160401b0381118282101715613a4f57600080fd5b604052919050565b60006001600160401b03821115613a6c578081fd5b5060209081020190565b60005b83811015613a91578181015183820152602001613a79565b83811115610cd85750506000910152565b6001600160a01b038116811461270757600080fd5b801515811461270757600080fd5b62ffffff8116811461270757600080fdfe878ac4e36082bb59b3cc944ba6e6bcae1c7bb29335c67d506346136003300284a26469706673582212204e39e4678c1c505c91c7120f26d4a5de77efbd07f94320ba97d035906889df6264736f6c634300060c0033",
  "linkReferences": {},
  "deployedLinkReferences": {}
}