{
  "_format": "hh-sol-artifact-1",
  "contractName": "OrderBookExec",
  "sourceName": "contracts/OrderBookExec.sol",
  "abi": [
    {
      "inputs": [],
      "stateMutability": "nonpayable",
      "type": "constructor"
    },
    {
      "anonymous": false,
      "inputs": [
        {
          "indexed": true,
          "internalType": "address",
          "name": "account",
          "type": "address"
        },
        {
          "indexed": false,
          "internalType": "uint256",
          "name": "orderIndex",
          "type": "uint256"
        },
        {
          "indexed": false,
          "internalType": "address[]",
          "name": "path",
          "type": "address[]"
        },
        {
          "indexed": false,
          "internalType": "uint256[]",
          "name": "tokenDecimals",
          "type": "uint256[]"
        },
        {
          "indexed": false,
          "internalType": "uint256",
          "name": "amountIn",
          "type": "uint256"
        },
        {
          "indexed": false,
          "internalType": "uint256",
          "name": "minOut",
          "type": "uint256"
        },
        {
          "indexed": false,
          "internalType": "uint256",
          "name": "triggerRatio",
          "type": "uint256"
        },
        {
          "indexed": false,
          "internalType": "bool",
          "name": "triggerAboveThreshold",
          "type": "bool"
        },
        {
          "indexed": false,
          "internalType": "bool",
          "name": "shouldUnwrap",
          "type": "bool"
        },
        {
          "indexed": false,
          "internalType": "uint256",
          "name": "executionFee",
          "type": "uint256"
        },
        {
          "indexed": false,
          "internalType": "uint24",
          "name": "fee",
          "type": "uint24"
        }
      ],
      "name": "CancelSwapOrder",
      "type": "event"
    },
    {
      "anonymous": false,
      "inputs": [
        {
          "indexed": true,
          "internalType": "address",
          "name": "account",
          "type": "address"
        },
        {
          "indexed": false,
          "internalType": "uint256",
          "name": "orderIndex",
          "type": "uint256"
        },
        {
          "indexed": false,
          "internalType": "address[]",
          "name": "path",
          "type": "address[]"
        },
        {
          "indexed": false,
          "internalType": "uint256[]",
          "name": "tokenDecimals",
          "type": "uint256[]"
        },
        {
          "indexed": false,
          "internalType": "uint256",
          "name": "amountIn",
          "type": "uint256"
        },
        {
          "indexed": false,
          "internalType": "uint256",
          "name": "minOut",
          "type": "uint256"
        },
        {
          "indexed": false,
          "internalType": "uint256",
          "name": "triggerRatio",
          "type": "uint256"
        },
        {
          "indexed": false,
          "internalType": "bool",
          "name": "triggerAboveThreshold",
          "type": "bool"
        },
        {
          "indexed": false,
          "internalType": "bool",
          "name": "shouldUnwrap",
          "type": "bool"
        },
        {
          "indexed": false,
          "internalType": "uint256",
          "name": "executionFee",
          "type": "uint256"
        },
        {
          "indexed": false,
          "internalType": "uint24",
          "name": "fee",
          "type": "uint24"
        }
      ],
      "name": "CreateSwapOrder",
      "type": "event"
    },
    {
      "anonymous": false,
      "inputs": [
        {
          "indexed": true,
          "internalType": "address",
          "name": "account",
          "type": "address"
        },
        {
          "indexed": false,
          "internalType": "uint256",
          "name": "orderIndex",
          "type": "uint256"
        },
        {
          "indexed": false,
          "internalType": "address[]",
          "name": "path",
          "type": "address[]"
        },
        {
          "indexed": false,
          "internalType": "uint256[]",
          "name": "tokenDecimals",
          "type": "uint256[]"
        },
        {
          "indexed": false,
          "internalType": "uint256",
          "name": "amountIn",
          "type": "uint256"
        },
        {
          "indexed": false,
          "internalType": "uint256",
          "name": "minOut",
          "type": "uint256"
        },
        {
          "indexed": false,
          "internalType": "uint256",
          "name": "amountOut",
          "type": "uint256"
        },
        {
          "indexed": false,
          "internalType": "uint256",
          "name": "triggerRatio",
          "type": "uint256"
        },
        {
          "indexed": false,
          "internalType": "bool",
          "name": "triggerAboveThreshold",
          "type": "bool"
        },
        {
          "indexed": false,
          "internalType": "bool",
          "name": "shouldUnwrap",
          "type": "bool"
        },
        {
          "indexed": false,
          "internalType": "uint256",
          "name": "executionFee",
          "type": "uint256"
        },
        {
          "indexed": false,
          "internalType": "uint24",
          "name": "fee",
          "type": "uint24"
        }
      ],
      "name": "ExecuteSwapOrder",
      "type": "event"
    },
    {
      "anonymous": false,
      "inputs": [
        {
          "indexed": false,
          "internalType": "address",
          "name": "exchangeRouter",
          "type": "address"
        },
        {
          "indexed": false,
          "internalType": "address",
          "name": "customRouter",
          "type": "address"
        },
        {
          "indexed": false,
          "internalType": "address",
          "name": "weth",
          "type": "address"
        },
        {
          "indexed": false,
          "internalType": "uint256",
          "name": "minExecutionFee",
          "type": "uint256"
        },
        {
          "indexed": false,
          "internalType": "uint256",
          "name": "minPurchaseTokenAmountUsd",
          "type": "uint256"
        }
      ],
      "name": "Initialize",
      "type": "event"
    },
    {
      "anonymous": false,
      "inputs": [
        {
          "indexed": true,
          "internalType": "address",
          "name": "account",
          "type": "address"
        },
        {
          "indexed": false,
          "internalType": "bool",
          "name": "isActive",
          "type": "bool"
        }
      ],
      "name": "SetOrderKeeper",
      "type": "event"
    },
    {
      "anonymous": false,
      "inputs": [
        {
          "indexed": false,
          "internalType": "address",
          "name": "exchangeRouter",
          "type": "address"
        },
        {
          "indexed": false,
          "internalType": "address",
          "name": "minExecutionFee",
          "type": "address"
        },
        {
          "indexed": false,
          "internalType": "address",
          "name": "uniSwapParamsGen",
          "type": "address"
        }
      ],
      "name": "UpdateConfig",
      "type": "event"
    },
    {
      "anonymous": false,
      "inputs": [
        {
          "indexed": false,
          "internalType": "address",
          "name": "gov",
          "type": "address"
        }
      ],
      "name": "UpdateGov",
      "type": "event"
    },
    {
      "anonymous": false,
      "inputs": [
        {
          "indexed": false,
          "internalType": "uint256",
          "name": "minExecutionFee",
          "type": "uint256"
        }
      ],
      "name": "UpdateMinExecutionFee",
      "type": "event"
    },
    {
      "anonymous": false,
      "inputs": [
        {
          "indexed": false,
          "internalType": "uint256",
          "name": "minPurchaseTokenAmountUsd",
          "type": "uint256"
        }
      ],
      "name": "UpdateMinPurchaseTokenAmountUsd",
      "type": "event"
    },
    {
      "anonymous": false,
      "inputs": [
        {
          "indexed": true,
          "internalType": "address",
          "name": "account",
          "type": "address"
        },
        {
          "indexed": false,
          "internalType": "uint256",
          "name": "ordexIndex",
          "type": "uint256"
        },
        {
          "indexed": false,
          "internalType": "address[]",
          "name": "path",
          "type": "address[]"
        },
        {
          "indexed": false,
          "internalType": "uint256[]",
          "name": "tokenDecimals",
          "type": "uint256[]"
        },
        {
          "indexed": false,
          "internalType": "uint256",
          "name": "amountIn",
          "type": "uint256"
        },
        {
          "indexed": false,
          "internalType": "uint256",
          "name": "minOut",
          "type": "uint256"
        },
        {
          "indexed": false,
          "internalType": "uint256",
          "name": "triggerRatio",
          "type": "uint256"
        },
        {
          "indexed": false,
          "internalType": "bool",
          "name": "triggerAboveThreshold",
          "type": "bool"
        },
        {
          "indexed": false,
          "internalType": "bool",
          "name": "shouldUnwrap",
          "type": "bool"
        },
        {
          "indexed": false,
          "internalType": "uint256",
          "name": "executionFee",
          "type": "uint256"
        },
        {
          "indexed": false,
          "internalType": "uint24",
          "name": "fee",
          "type": "uint24"
        }
      ],
      "name": "UpdateSwapOrder",
      "type": "event"
    },
    {
      "inputs": [],
      "name": "PRICE_PRECISION",
      "outputs": [
        {
          "internalType": "uint256",
          "name": "",
          "type": "uint256"
        }
      ],
      "stateMutability": "view",
      "type": "function"
    },
    {
      "inputs": [
        {
          "internalType": "address",
          "name": "_token",
          "type": "address"
        },
        {
          "internalType": "address",
          "name": "_spender",
          "type": "address"
        },
        {
          "internalType": "uint256",
          "name": "_amount",
          "type": "uint256"
        }
      ],
      "name": "approve",
      "outputs": [],
      "stateMutability": "nonpayable",
      "type": "function"
    },
    {
      "inputs": [
        {
          "internalType": "uint256",
          "name": "_orderIndex",
          "type": "uint256"
        }
      ],
      "name": "cancelSwapOrder",
      "outputs": [],
      "stateMutability": "nonpayable",
      "type": "function"
    },
    {
      "inputs": [
        {
          "internalType": "address[]",
          "name": "_path",
          "type": "address[]"
        },
        {
          "internalType": "uint256[]",
          "name": "_tokenDecimals",
          "type": "uint256[]"
        },
        {
          "internalType": "uint256",
          "name": "_amountIn",
          "type": "uint256"
        },
        {
          "internalType": "uint256",
          "name": "_minOut",
          "type": "uint256"
        },
        {
          "internalType": "uint256",
          "name": "_triggerRatio",
          "type": "uint256"
        },
        {
          "internalType": "bool",
          "name": "_triggerAboveThreshold",
          "type": "bool"
        },
        {
          "internalType": "uint256",
          "name": "_executionFee",
          "type": "uint256"
        },
        {
          "internalType": "bool",
          "name": "_shouldWrap",
          "type": "bool"
        },
        {
          "internalType": "bool",
          "name": "_shouldUnwrap",
          "type": "bool"
        },
        {
          "internalType": "uint24",
          "name": "_fee",
          "type": "uint24"
        }
      ],
      "name": "createSwapOrder",
      "outputs": [],
      "stateMutability": "payable",
      "type": "function"
    },
    {
      "inputs": [],
      "name": "customRouter",
      "outputs": [
        {
          "internalType": "address",
          "name": "",
          "type": "address"
        }
      ],
      "stateMutability": "view",
      "type": "function"
    },
    {
      "inputs": [],
      "name": "exchangeRouter",
      "outputs": [
        {
          "internalType": "address",
          "name": "",
          "type": "address"
        }
      ],
      "stateMutability": "view",
      "type": "function"
    },
    {
      "inputs": [
        {
          "internalType": "bytes",
          "name": "path",
          "type": "bytes"
        },
        {
          "internalType": "address",
          "name": "_account",
          "type": "address"
        },
        {
          "internalType": "uint256",
          "name": "_orderIndex",
          "type": "uint256"
        },
        {
          "internalType": "address payable",
          "name": "_feeReceiver",
          "type": "address"
        }
      ],
      "name": "executeMultipleSwapOrder",
      "outputs": [],
      "stateMutability": "nonpayable",
      "type": "function"
    },
    {
      "inputs": [
        {
          "internalType": "uint160",
          "name": "_sqrtPriceLimitX96",
          "type": "uint160"
        },
        {
          "internalType": "address",
          "name": "_account",
          "type": "address"
        },
        {
          "internalType": "uint256",
          "name": "_orderIndex",
          "type": "uint256"
        },
        {
          "internalType": "address payable",
          "name": "_feeReceiver",
          "type": "address"
        }
      ],
      "name": "executeSingleSwapOrder",
      "outputs": [],
      "stateMutability": "nonpayable",
      "type": "function"
    },
    {
      "inputs": [
        {
          "internalType": "address",
          "name": "_account",
          "type": "address"
        },
        {
          "internalType": "uint256",
          "name": "_orderIndex",
          "type": "uint256"
        }
      ],
      "name": "getSwapOrder",
      "outputs": [
        {
          "internalType": "address",
          "name": "path0",
          "type": "address"
        },
        {
          "internalType": "address",
          "name": "path1",
          "type": "address"
        },
        {
          "internalType": "address",
          "name": "path2",
          "type": "address"
        },
        {
          "internalType": "uint256",
          "name": "amountIn",
          "type": "uint256"
        },
        {
          "internalType": "uint256",
          "name": "minOut",
          "type": "uint256"
        },
        {
          "internalType": "uint256",
          "name": "triggerRatio",
          "type": "uint256"
        },
        {
          "internalType": "bool",
          "name": "triggerAboveThreshold",
          "type": "bool"
        },
        {
          "internalType": "bool",
          "name": "shouldUnwrap",
          "type": "bool"
        },
        {
          "internalType": "uint256",
          "name": "executionFee",
          "type": "uint256"
        },
        {
          "internalType": "uint24",
          "name": "fee",
          "type": "uint24"
        }
      ],
      "stateMutability": "view",
      "type": "function"
    },
    {
      "inputs": [],
      "name": "gov",
      "outputs": [
        {
          "internalType": "address",
          "name": "",
          "type": "address"
        }
      ],
      "stateMutability": "view",
      "type": "function"
    },
    {
      "inputs": [
        {
          "internalType": "address",
          "name": "_exchangeRouter",
          "type": "address"
        },
        {
          "internalType": "address",
          "name": "_customRouter",
          "type": "address"
        },
        {
          "internalType": "address",
          "name": "_uniSwapParamsGen",
          "type": "address"
        },
        {
          "internalType": "address",
          "name": "_weth",
          "type": "address"
        },
        {
          "internalType": "address",
          "name": "_priceFeed",
          "type": "address"
        },
        {
          "internalType": "uint256",
          "name": "_minExecutionFee",
          "type": "uint256"
        },
        {
          "internalType": "uint256",
          "name": "_minPurchaseTokenAmountUsd",
          "type": "uint256"
        }
      ],
      "name": "initialize",
      "outputs": [],
      "stateMutability": "nonpayable",
      "type": "function"
    },
    {
      "inputs": [],
      "name": "isInitialized",
      "outputs": [
        {
          "internalType": "bool",
          "name": "",
          "type": "bool"
        }
      ],
      "stateMutability": "view",
      "type": "function"
    },
    {
      "inputs": [
        {
          "internalType": "address",
          "name": "",
          "type": "address"
        }
      ],
      "name": "isOrderKeeper",
      "outputs": [
        {
          "internalType": "bool",
          "name": "",
          "type": "bool"
        }
      ],
      "stateMutability": "view",
      "type": "function"
    },
    {
      "inputs": [],
      "name": "minExecutionFee",
      "outputs": [
        {
          "internalType": "uint256",
          "name": "",
          "type": "uint256"
        }
      ],
      "stateMutability": "view",
      "type": "function"
    },
    {
      "inputs": [],
      "name": "minPurchaseTokenAmountUsd",
      "outputs": [
        {
          "internalType": "uint256",
          "name": "",
          "type": "uint256"
        }
      ],
      "stateMutability": "view",
      "type": "function"
    },
    {
      "inputs": [],
      "name": "priceFeed",
      "outputs": [
        {
          "internalType": "address",
          "name": "",
          "type": "address"
        }
      ],
      "stateMutability": "view",
      "type": "function"
    },
    {
      "inputs": [
        {
          "internalType": "address",
          "name": "_gov",
          "type": "address"
        }
      ],
      "name": "setGov",
      "outputs": [],
      "stateMutability": "nonpayable",
      "type": "function"
    },
    {
      "inputs": [
        {
          "internalType": "uint256",
          "name": "_minExecutionFee",
          "type": "uint256"
        }
      ],
      "name": "setMinExecutionFee",
      "outputs": [],
      "stateMutability": "nonpayable",
      "type": "function"
    },
    {
      "inputs": [
        {
          "internalType": "uint256",
          "name": "_minPurchaseTokenAmountUsd",
          "type": "uint256"
        }
      ],
      "name": "setMinPurchaseTokenAmountUsd",
      "outputs": [],
      "stateMutability": "nonpayable",
      "type": "function"
    },
    {
      "inputs": [
        {
          "internalType": "address",
          "name": "_exchangeRouter",
          "type": "address"
        },
        {
          "internalType": "address",
          "name": "_customRouter",
          "type": "address"
        },
        {
          "internalType": "address",
          "name": "_uniSwapParamsGen",
          "type": "address"
        }
      ],
      "name": "setOrderConfig",
      "outputs": [],
      "stateMutability": "nonpayable",
      "type": "function"
    },
    {
      "inputs": [
        {
          "internalType": "address",
          "name": "_account",
          "type": "address"
        },
        {
          "internalType": "bool",
          "name": "_isActive",
          "type": "bool"
        }
      ],
      "name": "setOrderKeeper",
      "outputs": [],
      "stateMutability": "nonpayable",
      "type": "function"
    },
    {
      "inputs": [
        {
          "internalType": "address",
          "name": "",
          "type": "address"
        },
        {
          "internalType": "uint256",
          "name": "",
          "type": "uint256"
        }
      ],
      "name": "swapOrders",
      "outputs": [
        {
          "internalType": "address",
          "name": "account",
          "type": "address"
        },
        {
          "internalType": "uint256",
          "name": "amountIn",
          "type": "uint256"
        },
        {
          "internalType": "uint256",
          "name": "minOut",
          "type": "uint256"
        },
        {
          "internalType": "uint256",
          "name": "triggerRatio",
          "type": "uint256"
        },
        {
          "internalType": "bool",
          "name": "triggerAboveThreshold",
          "type": "bool"
        },
        {
          "internalType": "bool",
          "name": "shouldUnwrap",
          "type": "bool"
        },
        {
          "internalType": "uint256",
          "name": "executionFee",
          "type": "uint256"
        },
        {
          "internalType": "uint24",
          "name": "fee",
          "type": "uint24"
        }
      ],
      "stateMutability": "view",
      "type": "function"
    },
    {
      "inputs": [
        {
          "internalType": "address",
          "name": "",
          "type": "address"
        }
      ],
      "name": "swapOrdersIndex",
      "outputs": [
        {
          "internalType": "uint256",
          "name": "",
          "type": "uint256"
        }
      ],
      "stateMutability": "view",
      "type": "function"
    },
    {
      "inputs": [
        {
          "internalType": "address",
          "name": "_token",
          "type": "address"
        },
        {
          "internalType": "uint256",
          "name": "_amountOutEth",
          "type": "uint256"
        }
      ],
      "name": "transferOut",
      "outputs": [],
      "stateMutability": "nonpayable",
      "type": "function"
    },
    {
      "inputs": [],
      "name": "uniSwapParamsGen",
      "outputs": [
        {
          "internalType": "address",
          "name": "",
          "type": "address"
        }
      ],
      "stateMutability": "view",
      "type": "function"
    },
    {
      "inputs": [
        {
          "internalType": "uint256",
          "name": "_orderIndex",
          "type": "uint256"
        },
        {
          "internalType": "uint256",
          "name": "_minOut",
          "type": "uint256"
        },
        {
          "internalType": "uint256",
          "name": "_triggerRatio",
          "type": "uint256"
        },
        {
          "internalType": "bool",
          "name": "_triggerAboveThreshold",
          "type": "bool"
        }
      ],
      "name": "updateSwapOrder",
      "outputs": [],
      "stateMutability": "nonpayable",
      "type": "function"
    },
    {
      "inputs": [
        {
          "internalType": "address[]",
          "name": "_path",
          "type": "address[]"
        },
        {
          "internalType": "uint256[]",
          "name": "_tokenDecimals",
          "type": "uint256[]"
        },
        {
          "internalType": "bool",
          "name": "_triggerAboveThreshold",
          "type": "bool"
        },
        {
          "internalType": "uint256",
          "name": "_triggerRatio",
          "type": "uint256"
        },
        {
          "internalType": "uint24",
          "name": "_fee",
          "type": "uint24"
        }
      ],
      "name": "validateSwapOrderPriceWithTriggerAboveThreshold",
      "outputs": [
        {
          "internalType": "bool",
          "name": "",
          "type": "bool"
        }
      ],
      "stateMutability": "view",
      "type": "function"
    },
    {
      "inputs": [],
      "name": "weth",
      "outputs": [
        {
          "internalType": "address",
          "name": "",
          "type": "address"
        }
      ],
      "stateMutability": "view",
      "type": "function"
    },
    {
      "stateMutability": "payable",
      "type": "receive"
    }
  ],
  "bytecode": "0x6080604052600c805460ff1916905534801561001a57600080fd5b506001600055600480546001600160a01b03191633179055613be8806100416000396000f3fe60806040526004361061014a5760003560e01c8062cf066b146101895780630d5cc938146101bf57806312d43a51146101df5780631cb85818146102015780631e261538146102165780632472cf7a146102365780633833f5f514610256578063392e53cd146102835780633fc8cef31461029857806363ae2103146102ad578063741bef1a146102c257806376890c58146102d757806379221fa2146102f757806383fe01341461032b5780638de10c2e1461034b57806395082d251461036057806399e895dd146103755780639c8595061461038a578063b33f95271461039f578063c4e86f8d146103bf578063c86b0f7d146103df578063cfad57a2146103ff578063d0d40cd61461041f578063e1f21c6714610455578063eb1631a314610475578063f882ac0714610495578063f918c9c7146104b5578063fc2cee62146104c857610184565b36610184576005546001600160a01b031633146101825760405162461bcd60e51b815260040161017990613722565b60405180910390fd5b005b600080fd5b34801561019557600080fd5b506101a96101a4366004612a1f565b6104e8565b6040516101b6919061393b565b60405180910390f35b3480156101cb57600080fd5b506101826101da366004612f84565b6104fa565b3480156101eb57600080fd5b506101f4610564565b6040516101b69190613141565b34801561020d57600080fd5b506101f4610573565b34801561022257600080fd5b50610182610231366004612b47565b610582565b34801561024257600080fd5b50610182610251366004612d26565b61060c565b34801561026257600080fd5b50610276610271366004612a1f565b610c66565b6040516101b69190613336565b34801561028f57600080fd5b50610276610c7b565b3480156102a457600080fd5b506101f4610c84565b3480156102b957600080fd5b506101a9610c93565b3480156102ce57600080fd5b506101f4610c99565b3480156102e357600080fd5b506101826102f2366004612b7f565b610ca8565b34801561030357600080fd5b50610317610312366004612b7f565b610d82565b6040516101b69897969594939291906132ec565b34801561033757600080fd5b50610276610346366004612baa565b610de5565b34801561035757600080fd5b506101a9610efe565b34801561036c57600080fd5b506101a9610f04565b34801561038157600080fd5b506101f4610f14565b34801561039657600080fd5b506101f4610f23565b3480156103ab57600080fd5b506101826103ba366004612a85565b610f32565b3480156103cb57600080fd5b506101826103da366004612a3b565b611036565b3480156103eb57600080fd5b506101826103fa366004612fd7565b6110de565b34801561040b57600080fd5b5061018261041a366004612a1f565b6111df565b34801561042b57600080fd5b5061043f61043a366004612b7f565b611254565b6040516101b69a999897969594939291906131f0565b34801561046157600080fd5b50610182610470366004612b07565b6114c2565b34801561048157600080fd5b50610182610490366004612f32565b611505565b3480156104a157600080fd5b506101826104b0366004612f84565b611b7b565b6101826104c3366004612c3b565b611ebc565b3480156104d457600080fd5b506101826104e3366004612f84565b612089565b60026020526000908152604090205481565b6004546001600160a01b031633146105245760405162461bcd60e51b81526004016101799061338e565b600b8190556040517fe46d9daf6d25f7615efa1d0183b90ac6759d85014b598e409aadf0fd918d59a69061055990839061393b565b60405180910390a150565b6004546001600160a01b031681565b6007546001600160a01b031681565b6004546001600160a01b031633146105ac5760405162461bcd60e51b81526004016101799061338e565b6001600160a01b03821660008181526003602052604090819020805460ff1916841515179055517f1d5bc0255b943d6a5b5279e8a55d74d620baccbceecb25e87a3558f14c4c118e90610600908490613336565b60405180910390a25050565b6002600054141561062f5760405162461bcd60e51b8152600401610179906137ed565b600260009081553381526003602052604090205460ff166106625760405162461bcd60e51b81526004016101799061338e565b61066a612740565b6001600160a01b03808516600090815260016020818152604080842088855282529283902083516101408101855281549095168552918201805484518184028101840190955280855292938583019390928301828280156106f457602002820191906000526020600020905b81546001600160a01b031681526001909101906020018083116106d6575b505050505081526020016002820180548060200260200160405190810160405280929190818152602001828054801561074c57602002820191906000526020600020905b815481526020019060010190808311610738575b5050509183525050600382015460208201526004820154604082015260058201546060820152600682015460ff8082161515608084015261010090910416151560a0820152600782015460c082015260089091015462ffffff1660e09091015280519091506001600160a01b03166107d65760405162461bcd60e51b8152600401610179906136b5565b6107f8816020015182604001518360c001518460a00151856101200151610de5565b6108145760405162461bcd60e51b815260040161017990613638565b6001600160a01b0384166000908152600160208181526040808420878552909152822080546001600160a01b03191681559190610853908301826127a5565b6108616002830160006127a5565b50600060038201819055600482018190556005820181905560068201805461ffff19169055600782018190556008909101805462ffffff191690556020820151805182919082906108ae57fe5b6020026020010151905060008360200151600185602001515103815181106108d257fe5b6020908102919091010151600854855160608701516040516303704f0f60e31b81529394506001600160a01b0390921692631b8278789261091b92879290913091600401613192565b600060405180830381600087803b15801561093557600080fd5b505af1158015610949573d6000803e3d6000fd5b50506005546001600160a01b03848116911614915050801561096c57508360e001515b15610aa6576109796127c6565b60095460608601516080870151604051637937e14b60e11b81526001600160a01b039093169263f26fc296926109b9928f928f9291903090600401613341565b60006040518083038186803b1580156109d157600080fd5b505afa1580156109e5573d6000803e3d6000fd5b505050506040513d6000823e601f3d908101601f19168201604052610a0d9190810190612db2565b60075460405163c04b8d5960e01b81529192506001600160a01b03169063c04b8d5990610a3e90849060040161387a565b602060405180830381600087803b158015610a5857600080fd5b505af1158015610a6c573d6000803e3d6000fd5b505050506040513d601f19601f82011682018060405250810190610a909190612f9c565b9350610aa08486600001516120e8565b50610bde565b610aae6127c6565b600960009054906101000a90046001600160a01b03166001600160a01b031663f26fc2968b8b886060015189608001518a600001516040518663ffffffff1660e01b8152600401610b03959493929190613341565b60006040518083038186803b158015610b1b57600080fd5b505afa158015610b2f573d6000803e3d6000fd5b505050506040513d6000823e601f3d908101601f19168201604052610b579190810190612db2565b60075460405163c04b8d5960e01b81529192506001600160a01b03169063c04b8d5990610b8890849060040161387a565b602060405180830381600087803b158015610ba257600080fd5b505af1158015610bb6573d6000803e3d6000fd5b505050506040513d601f19601f82011682018060405250810190610bda9190612f9c565b9350505b610bed846101000151866120e8565b866001600160a01b0316600080516020613b93833981519152878660200151876040015188606001518960800151898b60a001518c60c001518d60e001518e61010001518f6101200151604051610c4e9b9a999897969594939291906139b4565b60405180910390a25050600160005550505050505050565b60036020526000908152604090205460ff1681565b600c5460ff1681565b6005546001600160a01b031681565b600a5481565b6006546001600160a01b031681565b6004546001600160a01b03163314610cd25760405162461bcd60e51b81526004016101799061338e565b6040516370a0823160e01b815233906000906001600160a01b038516906370a0823190610d03903090600401613141565b60206040518083038186803b158015610d1b57600080fd5b505afa158015610d2f573d6000803e3d6000fd5b505050506040513d601f19601f82011682018060405250810190610d539190612f9c565b9050610d696001600160a01b0385163383612162565b610d7c6001600160a01b038316846121b8565b50505050565b600160209081526000928352604080842090915290825290208054600382015460048301546005840154600685015460078601546008909601546001600160a01b039095169593949293919260ff8083169361010090930416919062ffffff1688565b6000855160021480610df8575085516003145b610e145760405162461bcd60e51b815260040161017990613601565b600086600081518110610e2357fe5b60200260200101519050600087600189510381518110610e3f57fe5b602090810291909101015160065460405163dbbb852760e01b815291925060009182916001600160a01b03169063dbbb852790610e8690879087908b908f9060040161324e565b604080518083038186803b158015610e9d57600080fd5b505afa158015610eb1573d6000803e3d6000fd5b505050506040513d601f19601f82011682018060405250810190610ed59190612fb4565b909250905081600089610eea57888210610eee565b8882115b9c9b505050505050505050505050565b600b5481565b68327cb2734119d3b7a9601e1b81565b6008546001600160a01b031681565b6009546001600160a01b031681565b6004546001600160a01b03163314610f5c5760405162461bcd60e51b81526004016101799061338e565b600c5460ff1615610f7f5760405162461bcd60e51b8152600401610179906133f1565b600c805460ff19166001179055600780546001600160a01b03808a166001600160a01b0319928316179092556008805489841690831617905560098054888416908316179055600580548784169083161790556006805492861692909116919091179055600a829055600b8190556040517f0f4e49fafe73f5d41dd869ea8947aca5854012f53890a27f7379ad92a02edb6d9061102590899089908890879087906131bc565b60405180910390a150505050505050565b6004546001600160a01b031633146110605760405162461bcd60e51b81526004016101799061338e565b600780546001600160a01b038086166001600160a01b0319928316179092556008805485841690831617905560098054928416929091169190911790556040517f35f180c3b8e1453b18b442cd6962e98c45d53fe080b4e2fa37065c95d5ae9b1d906110d19085908590859061316f565b60405180910390a1505050565b600260005414156111015760405162461bcd60e51b8152600401610179906137ed565b60026000908155338152600160209081526040808320878452909152902080546001600160a01b03166111465760405162461bcd60e51b8152600401610179906136b5565b600481018490556005810183905560068101805483151560ff19909116179081905560038201546007830154600884015460405133947f868ca3017d54049ba526a1d1802622de7d47bc60c03dd1af3991b1464349be74946111cb948c9460018a019460028b01948e938e938e9361010090930460ff169262ffffff90911690613a2d565b60405180910390a250506001600055505050565b6004546001600160a01b031633146112095760405162461bcd60e51b81526004016101799061338e565b600480546001600160a01b0319166001600160a01b0383161790556040517fe24c39186e9137521953beaa8446e71f55b8f12296984f9d4273ceb1af728d9090610559908390613141565b60008060008060008060008060008061126b612740565b600160008e6001600160a01b03166001600160a01b0316815260200190815260200160002060008d8152602001908152602001600020604051806101400160405290816000820160009054906101000a90046001600160a01b03166001600160a01b03166001600160a01b031681526020016001820180548060200260200160405190810160405280929190818152602001828054801561133557602002820191906000526020600020905b81546001600160a01b03168152600190910190602001808311611317575b505050505081526020016002820180548060200260200160405190810160405280929190818152602001828054801561138d57602002820191906000526020600020905b815481526020019060010190808311611379575b505050918352505060038201546020808301919091526004830154604083015260058301546060830152600683015460ff8082161515608085015261010090910416151560a0830152600783015460c083015260089092015462ffffff1660e0909101528101515190915061140357600061141d565b806020015160008151811061141457fe5b60200260200101515b60018260200151511161143157600061144b565b816020015160018151811061144257fe5b60200260200101515b60028360200151511161145f576000611479565b826020015160028151811061147057fe5b60200260200101515b836060015184608001518560a001518660c001518760e001518861010001518961012001519a509a509a509a509a509a509a509a509a509a50509295989b9194979a5092959850565b6004546001600160a01b031633146114ec5760405162461bcd60e51b81526004016101799061338e565b6115006001600160a01b0384168383612254565b505050565b600260005414156115285760405162461bcd60e51b8152600401610179906137ed565b600260009081553381526003602052604090205460ff1661155b5760405162461bcd60e51b81526004016101799061338e565b611563612740565b6001600160a01b03808516600090815260016020818152604080842088855282529283902083516101408101855281549095168552918201805484518184028101840190955280855292938583019390928301828280156115ed57602002820191906000526020600020905b81546001600160a01b031681526001909101906020018083116115cf575b505050505081526020016002820180548060200260200160405190810160405280929190818152602001828054801561164557602002820191906000526020600020905b815481526020019060010190808311611631575b5050509183525050600382015460208201526004820154604082015260058201546060820152600682015460ff8082161515608084015261010090910416151560a0820152600782015460c082015260089091015462ffffff1660e09091015280519091506001600160a01b03166116cf5760405162461bcd60e51b8152600401610179906136b5565b6116f1816020015182604001518360c001518460a00151856101200151610de5565b61170d5760405162461bcd60e51b815260040161017990613638565b6001600160a01b0384166000908152600160208181526040808420878552909152822080546001600160a01b0319168155919061174c908301826127a5565b61175a6002830160006127a5565b50600060038201819055600482018190556005820181905560068201805461ffff19169055600782018190556008909101805462ffffff191690556020820151805182919082906117a757fe5b6020026020010151905060008360200151600185602001515103815181106117cb57fe5b6020908102919091010151600854855160608701516040516303704f0f60e31b81529394506001600160a01b0390921692631b8278789261181492879290913091600401613192565b600060405180830381600087803b15801561182e57600080fd5b505af1158015611842573d6000803e3d6000fd5b50506005546001600160a01b03848116911614915050801561186557508360e001515b156119b6576118726127fe565b600960009054906101000a90046001600160a01b03166001600160a01b031663120928e9848488610120015189606001518a608001518f306040518863ffffffff1660e01b81526004016118cc979695949392919061328f565b6101006040518083038186803b1580156118e557600080fd5b505afa1580156118f9573d6000803e3d6000fd5b505050506040513d601f19601f8201168201806040525081019061191d9190612e99565b60075460405163414bf38960e01b81529192506001600160a01b03169063414bf3899061194e9084906004016138d2565b602060405180830381600087803b15801561196857600080fd5b505af115801561197c573d6000803e3d6000fd5b505050506040513d601f19601f820116820180604052508101906119a09190612f9c565b93506119b08486600001516120e8565b50611af4565b6119be6127fe565b600960009054906101000a90046001600160a01b03166001600160a01b031663120928e9848488610120015189606001518a608001518f8c600001516040518863ffffffff1660e01b8152600401611a1c979695949392919061328f565b6101006040518083038186803b158015611a3557600080fd5b505afa158015611a49573d6000803e3d6000fd5b505050506040513d601f19601f82011682018060405250810190611a6d9190612e99565b60075460405163414bf38960e01b81529192506001600160a01b03169063414bf38990611a9e9084906004016138d2565b602060405180830381600087803b158015611ab857600080fd5b505af1158015611acc573d6000803e3d6000fd5b505050506040513d601f19601f82011682018060405250810190611af09190612f9c565b9350505b611b03846101000151866120e8565b866001600160a01b0316600080516020613b93833981519152878660200151876040015188606001518960800151898b60a001518c60c001518d60e001518e61010001518f6101200151604051611b649b9a999897969594939291906139b4565b60405180910390a250506001600055505050505050565b60026000541415611b9e5760405162461bcd60e51b8152600401610179906137ed565b6002600055611bab612740565b33600090815260016020818152604080842086855282529283902083516101408101855281546001600160a01b0316815292810180548551818502810185019096528086529394919385840193830182828015611c3157602002820191906000526020600020905b81546001600160a01b03168152600190910190602001808311611c13575b5050505050815260200160028201805480602002602001604051908101604052809291908181526020018280548015611c8957602002820191906000526020600020905b815481526020019060010190808311611c75575b5050509183525050600382015460208201526004820154604082015260058201546060820152600682015460ff8082161515608084015261010090910416151560a0820152600782015460c082015260089091015462ffffff1660e09091015280519091506001600160a01b0316611d135760405162461bcd60e51b8152600401610179906136b5565b336000908152600160208181526040808420868552909152822080546001600160a01b03191681559190611d49908301826127a5565b611d576002830160006127a5565b5060006003820181905560048201819055600580830182905560068301805461ffff19169055600783018290556008909201805462ffffff191690559054602083015180516001600160a01b03909216929091611db057fe5b60200260200101516001600160a01b03161415611df157611dec611de6826060015183610100015161231790919063ffffffff16565b336120e8565b611e3a565b611e2b3382606001518360200151600081518110611e0b57fe5b60200260200101516001600160a01b03166121629092919063ffffffff16565b611e3a816101000151336120e8565b336001600160a01b03167f12a45dbc05635c37c1a555a188c8fadc33058c3f042ce3ef998d35a58e78be9f8383602001518460400151856060015186608001518760a001518860c001518960e001518a61010001518b6101200151604051611eab9a99989796959493929190613944565b60405180910390a250506001600055565b60026000541415611edf5760405162461bcd60e51b8152600401610179906137ed565b600260008190558a511480611ef5575089516003145b611f115760405162461bcd60e51b815260040161017990613601565b8960018b510381518110611f2157fe5b60200260200101516001600160a01b03168a600081518110611f3f57fe5b60200260200101516001600160a01b03161415611f6e5760405162461bcd60e51b815260040161017990613589565b60008811611f8e5760405162461bcd60e51b8152600401610179906136ec565b600a54841015611fb05760405162461bcd60e51b815260040161017990613544565b611fb8612345565b8215612047576005548a516001600160a01b03909116908b90600090611fda57fe5b60200260200101516001600160a01b0316146120085760405162461bcd60e51b8152600401610179906134ff565b6120128489612317565b34146120305760405162461bcd60e51b8152600401610179906135bb565b61204233898c600081518110611e0b57fe5b612066565b8334146120665760405162461bcd60e51b81526004016101799061379f565b612078338b8b8b8b8b8b898c8a6123b7565b505060016000555050505050505050565b6004546001600160a01b031633146120b35760405162461bcd60e51b81526004016101799061338e565b600a8190556040517fbde5eafdc37b81830d70124cddccaaa6d034e71dda3c8fc18a959ca76a7cbcfc9061055990839061393b565b600554604051632e1a7d4d60e01b81526001600160a01b0390911690632e1a7d4d9061211890859060040161393b565b600060405180830381600087803b15801561213257600080fd5b505af1158015612146573d6000803e3d6000fd5b5061215e925050506001600160a01b038216836121b8565b5050565b6115008363a9059cbb60e01b84846040516024016121819291906132d3565b60408051601f198184030181529190526020810180516001600160e01b03166001600160e01b031990931692909217909152612598565b804710156121d85760405162461bcd60e51b815260040161017990613482565b6000826001600160a01b0316826040516121f19061313e565b60006040518083038185875af1925050503d806000811461222e576040519150601f19603f3d011682016040523d82523d6000602084013e612233565b606091505b50509050806115005760405162461bcd60e51b815260040161017990613428565b8015806122dc5750604051636eb1769f60e11b81526001600160a01b0384169063dd62ed3e9061228a9030908690600401613155565b60206040518083038186803b1580156122a257600080fd5b505afa1580156122b6573d6000803e3d6000fd5b505050506040513d601f19601f820116820180604052508101906122da9190612f9c565b155b6122f85760405162461bcd60e51b815260040161017990613824565b6115008363095ea7b360e01b84846040516024016121819291906132d3565b60008282018381101561233c5760405162461bcd60e51b8152600401610179906133bc565b90505b92915050565b34156123b557600560009054906101000a90046001600160a01b03166001600160a01b031663d0e30db0346040518263ffffffff1660e01b81526004016000604051808303818588803b15801561239b57600080fd5b505af11580156123af573d6000803e3d6000fd5b50505050505b565b6001600160a01b038a166000908152600260205260409020546123d8612740565b6040518061014001604052808d6001600160a01b031681526020018c81526020018b81526020018a8152602001898152602001888152602001871515815260200186151581526020018581526020018462ffffff16815250905061244660018361231790919063ffffffff16565b6001600160a01b038d81166000908152600260209081526040808320949094556001808252848320878452825293909120845181546001600160a01b031916931692909217825583810151805185946124a493908501920190612842565b50604082015180516124c09160028401916020909101906128a7565b50606082015160038201556080820151600482015560a0820151600582015560c082015160068201805460e085015160ff199091169215159290921761ff00191661010092151583021790558201516007820155610120909101516008909101805462ffffff191662ffffff9092169190911790556040516001600160a01b038d16907f6a79c287440d43ca86db5fa7118249871fe10480590759b51cadf5b2d6aa126e906125829085908f908f908f908f908f908f908f908f908f90613944565b60405180910390a2505050505050505050505050565b60606125ed826040518060400160405280602081526020017f5361666545524332303a206c6f772d6c6576656c2063616c6c206661696c6564815250856001600160a01b03166126279092919063ffffffff16565b805190915015611500578080602001905181019061260b9190612d0a565b6115005760405162461bcd60e51b815260040161017990613755565b60606126368484600085612640565b90505b9392505050565b6060824710156126625760405162461bcd60e51b8152600401610179906134b9565b61266b85612701565b6126875760405162461bcd60e51b81526004016101799061367e565b60006060866001600160a01b031685876040516126a49190613122565b60006040518083038185875af1925050503d80600081146126e1576040519150601f19603f3d011682016040523d82523d6000602084013e6126e6565b606091505b50915091506126f6828286612707565b979650505050505050565b3b151590565b60608315612716575081612639565b8251156127265782518084602001fd5b8160405162461bcd60e51b8152600401610179919061337b565b60405180610140016040528060006001600160a01b03168152602001606081526020016060815260200160008152602001600081526020016000815260200160001515815260200160001515815260200160008152602001600062ffffff1681525090565b50805460008255906000526020600020908101906127c391906128ea565b50565b6040518060a001604052806060815260200160006001600160a01b031681526020016000815260200160008152602001600081525090565b6040805161010081018252600080825260208201819052918101829052606081018290526080810182905260a0810182905260c0810182905260e081019190915290565b828054828255906000526020600020908101928215612897579160200282015b8281111561289757825182546001600160a01b0319166001600160a01b03909116178255602090920191600190910190612862565b506128a39291506128ff565b5090565b8280548282559060005260206000209081019282156128e2579160200282015b828111156128e25782518255916020019190600101906128c7565b506128a39291505b5b808211156128a357600081556001016128eb565b5b808211156128a35780546001600160a01b0319168155600101612900565b805161233f81613b5e565b600082601f830112612939578081fd5b813561294c61294782613b13565b613aed565b81815291506020808301908481018184028601820187101561296d57600080fd5b60005b8481101561299557813561298381613b5e565b84529282019290820190600101612970565b505050505092915050565b600082601f8301126129b0578081fd5b81356129be61294782613b13565b8181529150602080830190848101818402860182018710156129df57600080fd5b60005b84811015612995578135845292820192908201906001016129e2565b803561233f81613b73565b803561233f81613b81565b805161233f81613b81565b600060208284031215612a30578081fd5b813561233c81613b5e565b600080600060608486031215612a4f578182fd5b8335612a5a81613b5e565b92506020840135612a6a81613b5e565b91506040840135612a7a81613b5e565b809150509250925092565b600080600080600080600060e0888a031215612a9f578283fd5b8735612aaa81613b5e565b96506020880135612aba81613b5e565b95506040880135612aca81613b5e565b94506060880135612ada81613b5e565b93506080880135612aea81613b5e565b9699959850939692959460a0840135945060c09093013592915050565b600080600060608486031215612b1b578283fd5b8335612b2681613b5e565b92506020840135612b3681613b5e565b929592945050506040919091013590565b60008060408385031215612b59578182fd5b8235612b6481613b5e565b91506020830135612b7481613b73565b809150509250929050565b60008060408385031215612b91578182fd5b8235612b9c81613b5e565b946020939093013593505050565b600080600080600060a08688031215612bc1578283fd5b85356001600160401b0380821115612bd7578485fd5b612be389838a01612929565b96506020880135915080821115612bf8578485fd5b50612c05888289016129a0565b9450506040860135612c1681613b73565b9250606086013591506080860135612c2d81613b81565b809150509295509295909350565b6000806000806000806000806000806101408b8d031215612c5a578384fd5b8a356001600160401b0380821115612c70578586fd5b612c7c8e838f01612929565b9b5060208d0135915080821115612c91578586fd5b50612c9e8d828e016129a0565b99505060408b0135975060608b0135965060808b01359550612cc38c60a08d016129fe565b945060c08b01359350612cd98c60e08d016129fe565b9250612ce98c6101008d016129fe565b9150612cf98c6101208d01612a09565b90509295989b9194979a5092959850565b600060208284031215612d1b578081fd5b815161233c81613b73565b600080600080600060808688031215612d3d578283fd5b85356001600160401b0380821115612d53578485fd5b818801915088601f830112612d66578485fd5b813581811115612d74578586fd5b896020828501011115612d85578586fd5b60209283019750955050860135612d9b81613b5e565b9250604086013591506060860135612c2d81613b5e565b60006020808385031215612dc4578182fd5b82516001600160401b0380821115612dda578384fd5b9084019060a08287031215612ded578384fd5b612df760a0613aed565b825182811115612e05578586fd5b8301601f81018813612e15578586fd5b805183811115612e23578687fd5b612e35601f8201601f19168701613aed565b93508084528886828401011115612e4a578687fd5b612e5981878601888501613b32565b5050818152612e6a8785850161291e565b848201526040830151604082015260608301516060820152608083015160808201528094505050505092915050565b6000610100808385031215612eac578182fd5b612eb581613aed565b90508251612ec281613b5e565b81526020830151612ed281613b5e565b6020820152612ee48460408501612a14565b6040820152612ef6846060850161291e565b60608201526080830151608082015260a083015160a082015260c083015160c0820152612f268460e0850161291e565b60e08201529392505050565b60008060008060808587031215612f47578182fd5b8435612f5281613b5e565b93506020850135612f6281613b5e565b9250604085013591506060850135612f7981613b5e565b939692955090935050565b600060208284031215612f95578081fd5b5035919050565b600060208284031215612fad578081fd5b5051919050565b60008060408385031215612fc6578182fd5b505080516020909101519092909150565b60008060008060808587031215612fec578182fd5b8435935060208501359250604085013591506060850135612f7981613b73565b6001600160a01b03169052565b6000815180845260208085019450808401835b838110156130515781516001600160a01b03168752958201959082019060010161302c565b509495945050505050565b6000815180845260208085019450808401835b838110156130515781518752958201959082019060010161306f565b6000815480845260208085019450838352808320835b83811015613051578154875295820195600191820191016130a1565b15159052565b60008284528282602086013780602084860101526020601f19601f85011685010190509392505050565b60008151808452613105816020860160208601613b32565b601f01601f19169290920160200192915050565b62ffffff169052565b60008251613134818460208701613b32565b9190910192915050565b90565b6001600160a01b0391909116815260200190565b6001600160a01b0392831681529116602082015260400190565b6001600160a01b0393841681529183166020830152909116604082015260600190565b6001600160a01b039485168152928416602084015292166040820152606081019190915260800190565b6001600160a01b03958616815293851660208501529190931660408301526060820192909252608081019190915260a00190565b6001600160a01b039a8b168152988a1660208a01529690981660408801526060870194909452608086019290925260a0850152151560c0840152151560e083015261010082019290925262ffffff9091166101208201526101400190565b6001600160a01b0385811682528416602082015262ffffff831660408201526080606082018190526000906132859083018461305c565b9695505050505050565b6001600160a01b039788168152958716602087015262ffffff94909416604086015260608501929092526080840152831660a083015290911660c082015260e00190565b6001600160a01b03929092168252602082015260400190565b6001600160a01b0398909816885260208801969096526040870194909452606086019290925215156080850152151560a084015260c083015262ffffff1660e08201526101000190565b901515815260200190565b6000608082526133556080830187896130c3565b60208301959095525060408101929092526001600160a01b031660609091015292915050565b60006020825261263960208301846130ed565b60208082526014908201527327b93232b92137b7b59d103337b93134b23232b760611b604082015260600190565b6020808252601b908201527a536166654d6174683a206164646974696f6e206f766572666c6f7760281b604082015260600190565b6020808252601e908201527f4f72646572426f6f6b3a20616c726561647920696e697469616c697a65640000604082015260600190565b6020808252603a908201527f416464726573733a20756e61626c6520746f2073656e642076616c75652c20726040820152791958da5c1a595b9d081b585e481a185d99481c995d995c9d195960321b606082015260800190565b6020808252601d908201527f416464726573733a20696e73756666696369656e742062616c616e6365000000604082015260600190565b60208082526026908201527f416464726573733a20696e73756666696369656e742062616c616e636520666f6040820152651c8818d85b1b60d21b606082015260800190565b60208082526025908201527f4f72646572426f6f6b3a206f6e6c79207765746820636f756c64206265207772604082015264185c1c195960da1b606082015260800190565b60208082526025908201527f4f72646572426f6f6b3a20696e73756666696369656e7420657865637574696f6040820152646e2066656560d81b606082015260800190565b60208082526018908201527709ee4c8cae484deded67440d2dcecc2d8d2c840bee0c2e8d60431b604082015260600190565b60208082526026908201527f4f72646572426f6f6b3a20696e636f72726563742076616c7565207472616e7360408201526519995c9c995960d21b606082015260800190565b6020808252601f908201527f4f72646572426f6f6b3a20696e76616c6964205f706174682e6c656e67746800604082015260600190565b60208082526026908201527f4f72646572426f6f6b3a20696e76616c696420707269636520666f722065786560408201526531baba34b7b760d11b606082015260800190565b6020808252601d908201527f416464726573733a2063616c6c20746f206e6f6e2d636f6e7472616374000000604082015260600190565b6020808252601d908201527f4f72646572426f6f6b3a206e6f6e2d6578697374656e74206f72646572000000604082015260600190565b6020808252601c908201527b27b93232b92137b7b59d1034b73b30b634b2102fb0b6b7bab73a24b760211b604082015260600190565b60208082526019908201527827b93232b92137b7b59d1034b73b30b634b21039b2b73232b960391b604082015260600190565b6020808252602a908201527f5361666545524332303a204552433230206f7065726174696f6e20646964206e6040820152691bdd081cdd58d8d9595960b21b606082015260800190565b6020808252602e908201527f4f72646572426f6f6b3a20696e636f727265637420657865637574696f6e206660408201526d1959481d1c985b9cd9995c9c995960921b606082015260800190565b6020808252601f908201527f5265656e7472616e637947756172643a207265656e7472616e742063616c6c00604082015260600190565b60208082526036908201527f5361666545524332303a20617070726f76652066726f6d206e6f6e2d7a65726f60408201527520746f206e6f6e2d7a65726f20616c6c6f77616e636560501b606082015260800190565b600060208252825160a0602084015261389660c08401826130ed565b905060018060a01b0360208501511660408401526040840151606084015260608401516080840152608084015160a08401528091505092915050565b81516001600160a01b03908116825260208084015182169083015260408084015162ffffff16908301526060808401518216908301526080808401519083015260a0838101519083015260c0808401519083015260e09283015116918101919091526101000190565b90815260200190565b60006101408c835280602084015261395e8184018d613019565b90508281036040840152613972818c61305c565b606084019a909a525050608081019690965260a086019490945291151560c0850152151560e084015261010083015262ffffff16610120909101529392505050565b60006101608d83528060208401526139ce8184018e613019565b905082810360408401526139e2818d61305c565b606084019b909b525050608081019790975260a087019590955260c086019390935290151560e0850152151561010084015261012083015262ffffff16610140909101529392505050565b8a815261014060208083018290528b5491830182905260008c8152818120909261016085019290845b81811015613a84578354613a749086906001600160a01b031661300c565b9382019360019384019301613a56565b505050508281036040840152613a9a818c61308b565b9150508860608301528760808301528660a0830152613abc60c08301876130bd565b613ac960e08301866130bd565b83610100830152613ade610120830184613119565b9b9a5050505050505050505050565b6040518181016001600160401b0381118282101715613b0b57600080fd5b604052919050565b60006001600160401b03821115613b28578081fd5b5060209081020190565b60005b83811015613b4d578181015183820152602001613b35565b83811115610d7c5750506000910152565b6001600160a01b03811681146127c357600080fd5b80151581146127c357600080fd5b62ffffff811681146127c357600080fdfe878ac4e36082bb59b3cc944ba6e6bcae1c7bb29335c67d506346136003300284a264697066735822122074abc7b37f6aa3af8a2ded9e24d2859e598ef79f98c22be4d53c9c097e2cebe764736f6c634300060c0033",
  "linkReferences": {},
  "deployedLinkReferences": {}
}